{
  "contractName": "freelancer",
  "abi": [
    {
      "anonymous": false,
      "inputs": [
        {
          "indexed": false,
          "internalType": "uint256",
          "name": "checkid",
          "type": "uint256"
        },
        {
          "indexed": false,
          "internalType": "uint256",
          "name": "bid_id",
          "type": "uint256"
        },
        {
          "indexed": false,
          "internalType": "string",
          "name": "name",
          "type": "string"
        },
        {
          "indexed": false,
          "internalType": "string",
          "name": "message",
          "type": "string"
        },
        {
          "indexed": false,
          "internalType": "uint256",
          "name": "price",
          "type": "uint256"
        },
        {
          "indexed": false,
          "internalType": "address payable",
          "name": "bidder",
          "type": "address"
        },
        {
          "indexed": false,
          "internalType": "bool",
          "name": "status",
          "type": "bool"
        }
      ],
      "name": "Approved",
      "type": "event"
    },
    {
      "anonymous": false,
      "inputs": [
        {
          "indexed": false,
          "internalType": "uint256",
          "name": "id",
          "type": "uint256"
        },
        {
          "indexed": false,
          "internalType": "string",
          "name": "name",
          "type": "string"
        },
        {
          "indexed": false,
          "internalType": "string",
          "name": "des",
          "type": "string"
        },
        {
          "indexed": false,
          "internalType": "string",
          "name": "type1",
          "type": "string"
        },
        {
          "indexed": false,
          "internalType": "address payable",
          "name": "owner",
          "type": "address"
        },
        {
          "indexed": false,
          "internalType": "string",
          "name": "status",
          "type": "string"
        },
        {
          "indexed": false,
          "internalType": "bool",
          "name": "purchased",
          "type": "bool"
        }
      ],
      "name": "Rent",
      "type": "event"
    },
    {
      "anonymous": false,
      "inputs": [
        {
          "indexed": false,
          "internalType": "uint256",
          "name": "id",
          "type": "uint256"
        },
        {
          "indexed": false,
          "internalType": "string",
          "name": "name",
          "type": "string"
        },
        {
          "indexed": false,
          "internalType": "string",
          "name": "des",
          "type": "string"
        },
        {
          "indexed": false,
          "internalType": "string",
          "name": "type1",
          "type": "string"
        },
        {
          "indexed": false,
          "internalType": "address payable",
          "name": "owner",
          "type": "address"
        },
        {
          "indexed": false,
          "internalType": "string",
          "name": "status",
          "type": "string"
        },
        {
          "indexed": false,
          "internalType": "bool",
          "name": "purchased",
          "type": "bool"
        }
      ],
      "name": "Sale",
      "type": "event"
    },
    {
      "anonymous": false,
      "inputs": [
        {
          "indexed": false,
          "internalType": "uint256",
          "name": "checkid",
          "type": "uint256"
        },
        {
          "indexed": false,
          "internalType": "uint256",
          "name": "bid_id",
          "type": "uint256"
        },
        {
          "indexed": false,
          "internalType": "string",
          "name": "name",
          "type": "string"
        },
        {
          "indexed": false,
          "internalType": "string",
          "name": "message",
          "type": "string"
        },
        {
          "indexed": false,
          "internalType": "uint256",
          "name": "price",
          "type": "uint256"
        },
        {
          "indexed": false,
          "internalType": "address payable",
          "name": "bidder",
          "type": "address"
        },
        {
          "indexed": false,
          "internalType": "bool",
          "name": "status",
          "type": "bool"
        }
      ],
      "name": "bidCreated",
      "type": "event"
    },
    {
      "anonymous": false,
      "inputs": [
        {
          "indexed": false,
          "internalType": "uint256",
          "name": "bid_id",
          "type": "uint256"
        },
        {
          "indexed": false,
          "internalType": "string",
          "name": "name",
          "type": "string"
        },
        {
          "indexed": false,
          "internalType": "string",
          "name": "message",
          "type": "string"
        },
        {
          "indexed": false,
          "internalType": "uint256",
          "name": "price",
          "type": "uint256"
        },
        {
          "indexed": false,
          "internalType": "address payable",
          "name": "bidder",
          "type": "address"
        }
      ],
      "name": "bidPurchased",
      "type": "event"
    },
    {
      "anonymous": false,
      "inputs": [
        {
          "indexed": false,
          "internalType": "uint256",
          "name": "id",
          "type": "uint256"
        },
        {
          "indexed": false,
          "internalType": "uint256",
          "name": "p_id",
          "type": "uint256"
        },
        {
          "indexed": false,
          "internalType": "address payable",
          "name": "new_owner",
          "type": "address"
        }
      ],
      "name": "ledgerCreated",
      "type": "event"
    },
    {
      "anonymous": false,
      "inputs": [
        {
          "indexed": false,
          "internalType": "uint256",
          "name": "id",
          "type": "uint256"
        },
        {
          "indexed": false,
          "internalType": "uint256",
          "name": "bno",
          "type": "uint256"
        },
        {
          "indexed": false,
          "internalType": "string",
          "name": "name",
          "type": "string"
        },
        {
          "indexed": false,
          "internalType": "string",
          "name": "des",
          "type": "string"
        },
        {
          "indexed": false,
          "internalType": "string",
          "name": "type1",
          "type": "string"
        },
        {
          "indexed": false,
          "internalType": "address payable",
          "name": "owner",
          "type": "address"
        },
        {
          "indexed": false,
          "internalType": "string",
          "name": "status",
          "type": "string"
        },
        {
          "indexed": false,
          "internalType": "bool",
          "name": "purchased",
          "type": "bool"
        }
      ],
      "name": "propertyCreated",
      "type": "event"
    },
    {
      "constant": true,
      "inputs": [],
      "name": "bidCount",
      "outputs": [
        {
          "internalType": "uint256",
          "name": "",
          "type": "uint256"
        }
      ],
      "payable": false,
      "stateMutability": "view",
      "type": "function"
    },
    {
      "constant": true,
      "inputs": [
        {
          "internalType": "uint256",
          "name": "",
          "type": "uint256"
        }
      ],
      "name": "bids",
      "outputs": [
        {
          "internalType": "uint256",
          "name": "checkid",
          "type": "uint256"
        },
        {
          "internalType": "uint256",
          "name": "bid_id",
          "type": "uint256"
        },
        {
          "internalType": "string",
          "name": "name",
          "type": "string"
        },
        {
          "internalType": "string",
          "name": "message",
          "type": "string"
        },
        {
          "internalType": "uint256",
          "name": "price",
          "type": "uint256"
        },
        {
          "internalType": "address payable",
          "name": "bidder",
          "type": "address"
        },
        {
          "internalType": "bool",
          "name": "status",
          "type": "bool"
        }
      ],
      "payable": false,
      "stateMutability": "view",
      "type": "function"
    },
    {
      "constant": true,
      "inputs": [],
      "name": "ledgerCount",
      "outputs": [
        {
          "internalType": "uint256",
          "name": "",
          "type": "uint256"
        }
      ],
      "payable": false,
      "stateMutability": "view",
      "type": "function"
    },
    {
      "constant": true,
      "inputs": [
        {
          "internalType": "uint256",
          "name": "",
          "type": "uint256"
        }
      ],
      "name": "ledgers",
      "outputs": [
        {
          "internalType": "uint256",
          "name": "id",
          "type": "uint256"
        },
        {
          "internalType": "uint256",
          "name": "p_id",
          "type": "uint256"
        },
        {
          "internalType": "address payable",
          "name": "new_owner",
          "type": "address"
        }
      ],
      "payable": false,
      "stateMutability": "view",
      "type": "function"
    },
    {
      "constant": true,
      "inputs": [],
      "name": "linkCount",
      "outputs": [
        {
          "internalType": "uint256",
          "name": "",
          "type": "uint256"
        }
      ],
      "payable": false,
      "stateMutability": "view",
      "type": "function"
    },
    {
      "constant": true,
      "inputs": [
        {
          "internalType": "uint256",
          "name": "",
          "type": "uint256"
        }
      ],
      "name": "links",
      "outputs": [
        {
          "internalType": "uint256",
          "name": "checkid",
          "type": "uint256"
        },
        {
          "internalType": "uint256",
          "name": "bid_id",
          "type": "uint256"
        },
        {
          "internalType": "string",
          "name": "name",
          "type": "string"
        },
        {
          "internalType": "string",
          "name": "message",
          "type": "string"
        },
        {
          "internalType": "uint256",
          "name": "price",
          "type": "uint256"
        },
        {
          "internalType": "address payable",
          "name": "bidder",
          "type": "address"
        },
        {
          "internalType": "bool",
          "name": "status",
          "type": "bool"
        }
      ],
      "payable": false,
      "stateMutability": "view",
      "type": "function"
    },
    {
      "constant": true,
      "inputs": [],
      "name": "propertyCount",
      "outputs": [
        {
          "internalType": "uint256",
          "name": "",
          "type": "uint256"
        }
      ],
      "payable": false,
      "stateMutability": "view",
      "type": "function"
    },
    {
      "constant": true,
      "inputs": [
        {
          "internalType": "uint256",
          "name": "",
          "type": "uint256"
        }
      ],
      "name": "props",
      "outputs": [
        {
          "internalType": "uint256",
          "name": "id",
          "type": "uint256"
        },
        {
          "internalType": "uint256",
          "name": "bno",
          "type": "uint256"
        },
        {
          "internalType": "string",
          "name": "name",
          "type": "string"
        },
        {
          "internalType": "string",
          "name": "des",
          "type": "string"
        },
        {
          "internalType": "string",
          "name": "type1",
          "type": "string"
        },
        {
          "internalType": "address payable",
          "name": "owner",
          "type": "address"
        },
        {
          "internalType": "string",
          "name": "status",
          "type": "string"
        },
        {
          "internalType": "bool",
          "name": "purchased",
          "type": "bool"
        }
      ],
      "payable": false,
      "stateMutability": "view",
      "type": "function"
    },
    {
      "constant": false,
      "inputs": [
        {
          "internalType": "uint256",
          "name": "_bno",
          "type": "uint256"
        },
        {
          "internalType": "string",
          "name": "_name",
          "type": "string"
        },
        {
          "internalType": "string",
          "name": "_des",
          "type": "string"
        },
        {
          "internalType": "address payable",
          "name": "_owner",
          "type": "address"
        },
        {
          "internalType": "string",
          "name": "_type",
          "type": "string"
        }
      ],
      "name": "createProperty",
      "outputs": [],
      "payable": false,
      "stateMutability": "nonpayable",
      "type": "function"
    },
    {
      "constant": false,
      "inputs": [
        {
          "internalType": "uint256",
          "name": "_id",
          "type": "uint256"
        }
      ],
      "name": "forSale",
      "outputs": [],
      "payable": true,
      "stateMutability": "payable",
      "type": "function"
    },
    {
      "constant": false,
      "inputs": [
        {
          "internalType": "uint256",
          "name": "_id",
          "type": "uint256"
        }
      ],
      "name": "forRent",
      "outputs": [],
      "payable": true,
      "stateMutability": "payable",
      "type": "function"
    },
    {
      "constant": false,
      "inputs": [
        {
          "internalType": "uint256",
          "name": "_id",
          "type": "uint256"
        }
      ],
      "name": "forApprove",
      "outputs": [],
      "payable": true,
      "stateMutability": "payable",
      "type": "function"
    },
    {
      "constant": false,
      "inputs": [
        {
          "internalType": "uint256",
          "name": "_checkid",
          "type": "uint256"
        },
        {
          "internalType": "string",
          "name": "_name",
          "type": "string"
        },
        {
          "internalType": "string",
          "name": "_message",
          "type": "string"
        },
        {
          "internalType": "uint256",
          "name": "_price",
          "type": "uint256"
        }
      ],
      "name": "createBid",
      "outputs": [],
      "payable": false,
      "stateMutability": "nonpayable",
      "type": "function"
    },
    {
      "constant": false,
      "inputs": [
        {
          "internalType": "uint256",
          "name": "_id",
          "type": "uint256"
        }
      ],
      "name": "purchaseBid",
      "outputs": [],
      "payable": true,
      "stateMutability": "payable",
      "type": "function"
    }
  ],
  "bytecode": "0x60806040526000805560006001556000600255600060035534801561002357600080fd5b50613031806100336000396000f3fe6080604052600436106100dd5760003560e01c80639bb00ae31161007f578063c361a33511610059578063c361a33514610866578063e978919014610891578063fda54c161461091a578063fe47310814610b5e576100dd565b80639bb00ae3146107e5578063aac4767914610810578063b40a56271461083b576100dd565b80633a38bf57116100bb5780633a38bf57146104a35780634423c5f1146104d1578063526c8ef114610644578063881d8a4014610672576100dd565b80630da3c49c146100e25780631d4d64c3146102555780632831f2f414610475575b600080fd5b3480156100ee57600080fd5b506102536004803603608081101561010557600080fd5b81019080803590602001909291908035906020019064010000000081111561012c57600080fd5b82018360208201111561013e57600080fd5b8035906020019184600183028401116401000000008311171561016057600080fd5b91908080601f016020809104026020016040519081016040528093929190818152602001838380828437600081840152601f19601f820116905080830192505050505050509192919290803590602001906401000000008111156101c357600080fd5b8201836020820111156101d557600080fd5b803590602001918460018302840111640100000000831117156101f757600080fd5b91908080601f016020809104026020016040519081016040528093929190818152602001838380828437600081840152601f19601f82011690508083019250505050505050919291929080359060200190929190505050610b8c565b005b34801561026157600080fd5b50610473600480360360a081101561027857600080fd5b81019080803590602001909291908035906020019064010000000081111561029f57600080fd5b8201836020820111156102b157600080fd5b803590602001918460018302840111640100000000831117156102d357600080fd5b91908080601f016020809104026020016040519081016040528093929190818152602001838380828437600081840152601f19601f8201169050808301925050505050505091929192908035906020019064010000000081111561033657600080fd5b82018360208201111561034857600080fd5b8035906020019184600183028401116401000000008311171561036a57600080fd5b91908080601f016020809104026020016040519081016040528093929190818152602001838380828437600081840152601f19601f820116905080830192505050505050509192919290803573ffffffffffffffffffffffffffffffffffffffff169060200190929190803590602001906401000000008111156103ed57600080fd5b8201836020820111156103ff57600080fd5b8035906020019184600183028401116401000000008311171561042157600080fd5b91908080601f016020809104026020016040519081016040528093929190818152602001838380828437600081840152601f19601f820116905080830192505050505050509192919290505050610e2d565b005b6104a16004803603602081101561048b57600080fd5b8101908080359060200190929190505050611308565b005b6104cf600480360360208110156104b957600080fd5b81019080803590602001909291905050506116b9565b005b3480156104dd57600080fd5b5061050a600480360360208110156104f457600080fd5b8101908080359060200190929190505050611a6a565b6040518088815260200187815260200180602001806020018681526020018573ffffffffffffffffffffffffffffffffffffffff1673ffffffffffffffffffffffffffffffffffffffff16815260200184151515158152602001838103835288818151815260200191508051906020019080838360005b8381101561059c578082015181840152602081019050610581565b50505050905090810190601f1680156105c95780820380516001836020036101000a031916815260200191505b50838103825287818151815260200191508051906020019080838360005b838110156106025780820151818401526020810190506105e7565b50505050905090810190601f16801561062f5780820380516001836020036101000a031916815260200191505b50995050505050505050505060405180910390f35b6106706004803603602081101561065a57600080fd5b8101908080359060200190929190505050611c09565b005b34801561067e57600080fd5b506106ab6004803603602081101561069557600080fd5b8101908080359060200190929190505050611e87565b6040518088815260200187815260200180602001806020018681526020018573ffffffffffffffffffffffffffffffffffffffff1673ffffffffffffffffffffffffffffffffffffffff16815260200184151515158152602001838103835288818151815260200191508051906020019080838360005b8381101561073d578082015181840152602081019050610722565b50505050905090810190601f16801561076a5780820380516001836020036101000a031916815260200191505b50838103825287818151815260200191508051906020019080838360005b838110156107a3578082015181840152602081019050610788565b50505050905090810190601f1680156107d05780820380516001836020036101000a031916815260200191505b50995050505050505050505060405180910390f35b3480156107f157600080fd5b506107fa612026565b6040518082815260200191505060405180910390f35b34801561081c57600080fd5b5061082561202c565b6040518082815260200191505060405180910390f35b34801561084757600080fd5b50610850612032565b6040518082815260200191505060405180910390f35b34801561087257600080fd5b5061087b612038565b6040518082815260200191505060405180910390f35b34801561089d57600080fd5b506108ca600480360360208110156108b457600080fd5b810190808035906020019092919050505061203e565b604051808481526020018381526020018273ffffffffffffffffffffffffffffffffffffffff1673ffffffffffffffffffffffffffffffffffffffff168152602001935050505060405180910390f35b34801561092657600080fd5b506109536004803603602081101561093d57600080fd5b8101908080359060200190929190505050612088565b604051808981526020018881526020018060200180602001806020018773ffffffffffffffffffffffffffffffffffffffff1673ffffffffffffffffffffffffffffffffffffffff168152602001806020018615151515815260200185810385528b818151815260200191508051906020019080838360005b838110156109e75780820151818401526020810190506109cc565b50505050905090810190601f168015610a145780820380516001836020036101000a031916815260200191505b5085810384528a818151815260200191508051906020019080838360005b83811015610a4d578082015181840152602081019050610a32565b50505050905090810190601f168015610a7a5780820380516001836020036101000a031916815260200191505b50858103835289818151815260200191508051906020019080838360005b83811015610ab3578082015181840152602081019050610a98565b50505050905090810190601f168015610ae05780820380516001836020036101000a031916815260200191505b50858103825287818151815260200191508051906020019080838360005b83811015610b19578082015181840152602081019050610afe565b50505050905090810190601f168015610b465780820380516001836020036101000a031916815260200191505b509c5050505050505050505050505060405180910390f35b610b8a60048036036020811015610b7457600080fd5b810190808035906020019092919050505061235d565b005b6040518060e0016040528085815260200160015481526020018481526020018381526020018281526020013373ffffffffffffffffffffffffffffffffffffffff1681526020016000151581525060056000600154815260200190815260200160002060008201518160000155602082015181600101556040820151816002019080519060200190610c1f929190612e25565b506060820151816003019080519060200190610c3c929190612e25565b506080820151816004015560a08201518160050160006101000a81548173ffffffffffffffffffffffffffffffffffffffff021916908373ffffffffffffffffffffffffffffffffffffffff16021790555060c08201518160050160146101000a81548160ff0219169083151502179055509050506001600081548092919060010191905055507f7db1a57aa59dca21125ffef6b145d4451f42de0f9995043a82b6f7daf514e774846001548585853360006040518088815260200187815260200180602001806020018681526020018573ffffffffffffffffffffffffffffffffffffffff1673ffffffffffffffffffffffffffffffffffffffff16815260200184151515158152602001838103835288818151815260200191508051906020019080838360005b83811015610d80578082015181840152602081019050610d65565b50505050905090810190601f168015610dad5780820380516001836020036101000a031916815260200191505b50838103825287818151815260200191508051906020019080838360005b83811015610de6578082015181840152602081019050610dcb565b50505050905090810190601f168015610e135780820380516001836020036101000a031916815260200191505b50995050505050505050505060405180910390a150505050565b60405180610100016040528060005481526020018681526020018581526020018481526020018281526020018373ffffffffffffffffffffffffffffffffffffffff1681526020016040518060400160405280600d81526020017f4e4f5420415641494c41424c4500000000000000000000000000000000000000815250815260200160001515815250600460008054815260200190815260200160002060008201518160000155602082015181600101556040820151816002019080519060200190610efb929190612e25565b506060820151816003019080519060200190610f18929190612e25565b506080820151816004019080519060200190610f35929190612e25565b5060a08201518160050160006101000a81548173ffffffffffffffffffffffffffffffffffffffff021916908373ffffffffffffffffffffffffffffffffffffffff16021790555060c0820151816006019080519060200190610f99929190612e25565b5060e08201518160070160006101000a81548160ff02191690831515021790555090505060008081548092919060010191905055506040518060600160405280600354815260200160005481526020018373ffffffffffffffffffffffffffffffffffffffff16815250600760006003548152602001908152602001600020600082015181600001556020820151816001015560408201518160020160006101000a81548173ffffffffffffffffffffffffffffffffffffffff021916908373ffffffffffffffffffffffffffffffffffffffff1602179055509050506003600081548092919060010191905055507f7b38158a6634145be145833c1de84866d12d56c4192aac774677616e0f2a4d1260035460005484604051808481526020018381526020018273ffffffffffffffffffffffffffffffffffffffff1673ffffffffffffffffffffffffffffffffffffffff168152602001935050505060405180910390a17f4eb14baa6712bc162002b19a6e2508ddbc9149f9f4accd049ee539b7f66da35c60005486868685876000604051808881526020018781526020018060200180602001806020018673ffffffffffffffffffffffffffffffffffffffff1673ffffffffffffffffffffffffffffffffffffffff168152602001806020018615151515815260200185810385528a818151815260200191508051906020019080838360005b838110156111be5780820151818401526020810190506111a3565b50505050905090810190601f1680156111eb5780820380516001836020036101000a031916815260200191505b50858103845289818151815260200191508051906020019080838360005b83811015611224578082015181840152602081019050611209565b50505050905090810190601f1680156112515780820380516001836020036101000a031916815260200191505b50858103835288818151815260200191508051906020019080838360005b8381101561128a57808201518184015260208101905061126f565b50505050905090810190601f1680156112b75780820380516001836020036101000a031916815260200191505b508581038252600d8152602001807f4e4f5420415641494c41424c45000000000000000000000000000000000000008152506020019b50505050505050505050505060405180910390a15050505050565b6040518060400160405280600481526020017f53414c4500000000000000000000000000000000000000000000000000000000815250600460008381526020019081526020016000206006019080519060200190611367929190612ea5565b507f551d3a9ca8cbcd96328d9dd748056307e2ac9d8d62cc5cafd352c772537903a56000546004600084815260200190815260200160002060020160046000858152602001908152602001600020600301600460008681526020019081526020016000206004016004600087815260200190815260200160002060050160009054906101000a900473ffffffffffffffffffffffffffffffffffffffff16600460008881526020019081526020016000206006016004600089815260200190815260200160002060070160009054906101000a900460ff16604051808881526020018060200180602001806020018773ffffffffffffffffffffffffffffffffffffffff1673ffffffffffffffffffffffffffffffffffffffff168152602001806020018615151515815260200185810385528b8181546001816001161561010002031660029004815260200191508054600181600116156101000203166002900480156115165780601f106114eb57610100808354040283529160200191611516565b820191906000526020600020905b8154815290600101906020018083116114f957829003601f168201915b505085810384528a8181546001816001161561010002031660029004815260200191508054600181600116156101000203166002900480156115995780601f1061156e57610100808354040283529160200191611599565b820191906000526020600020905b81548152906001019060200180831161157c57829003601f168201915b505085810383528981815460018160011615610100020316600290048152602001915080546001816001161561010002031660029004801561161c5780601f106115f15761010080835404028352916020019161161c565b820191906000526020600020905b8154815290600101906020018083116115ff57829003601f168201915b505085810382528781815460018160011615610100020316600290048152602001915080546001816001161561010002031660029004801561169f5780601f106116745761010080835404028352916020019161169f565b820191906000526020600020905b81548152906001019060200180831161168257829003601f168201915b50509b50505050505050505050505060405180910390a150565b6040518060400160405280600481526020017f52454e5400000000000000000000000000000000000000000000000000000000815250600460008381526020019081526020016000206006019080519060200190611718929190612ea5565b507f551d3a9ca8cbcd96328d9dd748056307e2ac9d8d62cc5cafd352c772537903a56000546004600084815260200190815260200160002060020160046000858152602001908152602001600020600301600460008681526020019081526020016000206004016004600087815260200190815260200160002060050160009054906101000a900473ffffffffffffffffffffffffffffffffffffffff16600460008881526020019081526020016000206006016004600089815260200190815260200160002060070160009054906101000a900460ff16604051808881526020018060200180602001806020018773ffffffffffffffffffffffffffffffffffffffff1673ffffffffffffffffffffffffffffffffffffffff168152602001806020018615151515815260200185810385528b8181546001816001161561010002031660029004815260200191508054600181600116156101000203166002900480156118c75780601f1061189c576101008083540402835291602001916118c7565b820191906000526020600020905b8154815290600101906020018083116118aa57829003601f168201915b505085810384528a81815460018160011615610100020316600290048152602001915080546001816001161561010002031660029004801561194a5780601f1061191f5761010080835404028352916020019161194a565b820191906000526020600020905b81548152906001019060200180831161192d57829003601f168201915b50508581038352898181546001816001161561010002031660029004815260200191508054600181600116156101000203166002900480156119cd5780601f106119a2576101008083540402835291602001916119cd565b820191906000526020600020905b8154815290600101906020018083116119b057829003601f168201915b5050858103825287818154600181600116156101000203166002900481526020019150805460018160011615610100020316600290048015611a505780601f10611a2557610100808354040283529160200191611a50565b820191906000526020600020905b815481529060010190602001808311611a3357829003601f168201915b50509b50505050505050505050505060405180910390a150565b6005602052806000526040600020600091509050806000015490806001015490806002018054600181600116156101000203166002900480601f016020809104026020016040519081016040528092919081815260200182805460018160011615610100020316600290048015611b225780601f10611af757610100808354040283529160200191611b22565b820191906000526020600020905b815481529060010190602001808311611b0557829003601f168201915b505050505090806003018054600181600116156101000203166002900480601f016020809104026020016040519081016040528092919081815260200182805460018160011615610100020316600290048015611bc05780601f10611b9557610100808354040283529160200191611bc0565b820191906000526020600020905b815481529060010190602001808311611ba357829003601f168201915b5050505050908060040154908060050160009054906101000a900473ffffffffffffffffffffffffffffffffffffffff16908060050160149054906101000a900460ff16905087565b60016005600083815260200190815260200160002060050160146101000a81548160ff0219169083151502179055507f783dcb8016c4e3da6498ddaca349c9042ab7a46c94b19d497404f040afe3fa9e6005600083815260200190815260200160002060000154600154600560008581526020019081526020016000206002016005600086815260200190815260200160002060030160056000878152602001908152602001600020600401546005600088815260200190815260200160002060050160009054906101000a900473ffffffffffffffffffffffffffffffffffffffff166005600089815260200190815260200160002060050160149054906101000a900460ff166040518088815260200187815260200180602001806020018681526020018573ffffffffffffffffffffffffffffffffffffffff1673ffffffffffffffffffffffffffffffffffffffff16815260200184151515158152602001838103835288818154600181600116156101000203166002900481526020019150805460018160011615610100020316600290048015611dec5780601f10611dc157610100808354040283529160200191611dec565b820191906000526020600020905b815481529060010190602001808311611dcf57829003601f168201915b5050838103825287818154600181600116156101000203166002900481526020019150805460018160011615610100020316600290048015611e6f5780601f10611e4457610100808354040283529160200191611e6f565b820191906000526020600020905b815481529060010190602001808311611e5257829003601f168201915b5050995050505050505050505060405180910390a150565b6006602052806000526040600020600091509050806000015490806001015490806002018054600181600116156101000203166002900480601f016020809104026020016040519081016040528092919081815260200182805460018160011615610100020316600290048015611f3f5780601f10611f1457610100808354040283529160200191611f3f565b820191906000526020600020905b815481529060010190602001808311611f2257829003601f168201915b505050505090806003018054600181600116156101000203166002900480601f016020809104026020016040519081016040528092919081815260200182805460018160011615610100020316600290048015611fdd5780601f10611fb257610100808354040283529160200191611fdd565b820191906000526020600020905b815481529060010190602001808311611fc057829003601f168201915b5050505050908060040154908060050160009054906101000a900473ffffffffffffffffffffffffffffffffffffffff16908060050160149054906101000a900460ff16905087565b60035481565b60025481565b60015481565b60005481565b60076020528060005260406000206000915090508060000154908060010154908060020160009054906101000a900473ffffffffffffffffffffffffffffffffffffffff16905083565b6004602052806000526040600020600091509050806000015490806001015490806002018054600181600116156101000203166002900480601f0160208091040260200160405190810160405280929190818152602001828054600181600116156101000203166002900480156121405780601f1061211557610100808354040283529160200191612140565b820191906000526020600020905b81548152906001019060200180831161212357829003601f168201915b505050505090806003018054600181600116156101000203166002900480601f0160208091040260200160405190810160405280929190818152602001828054600181600116156101000203166002900480156121de5780601f106121b3576101008083540402835291602001916121de565b820191906000526020600020905b8154815290600101906020018083116121c157829003601f168201915b505050505090806004018054600181600116156101000203166002900480601f01602080910402602001604051908101604052809291908181526020018280546001816001161561010002031660029004801561227c5780601f106122515761010080835404028352916020019161227c565b820191906000526020600020905b81548152906001019060200180831161225f57829003601f168201915b5050505050908060050160009054906101000a900473ffffffffffffffffffffffffffffffffffffffff1690806006018054600181600116156101000203166002900480601f0160208091040260200160405190810160405280929190818152602001828054600181600116156101000203166002900480156123405780601f1061231557610100808354040283529160200191612340565b820191906000526020600020905b81548152906001019060200180831161232357829003601f168201915b5050505050908060070160009054906101000a900460ff16905088565b612365612f25565b600560008381526020019081526020016000206040518060e00160405290816000820154815260200160018201548152602001600282018054600181600116156101000203166002900480601f0160208091040260200160405190810160405280929190818152602001828054600181600116156101000203166002900480156124305780601f1061240557610100808354040283529160200191612430565b820191906000526020600020905b81548152906001019060200180831161241357829003601f168201915b50505050508152602001600382018054600181600116156101000203166002900480601f0160208091040260200160405190810160405280929190818152602001828054600181600116156101000203166002900480156124d25780601f106124a7576101008083540402835291602001916124d2565b820191906000526020600020905b8154815290600101906020018083116124b557829003601f168201915b50505050508152602001600482015481526020016005820160009054906101000a900473ffffffffffffffffffffffffffffffffffffffff1673ffffffffffffffffffffffffffffffffffffffff1673ffffffffffffffffffffffffffffffffffffffff1681526020016005820160149054906101000a900460ff161515151581525050905060008160a0015190506000826020015111801561257a57506001548260200151105b61258357600080fd5b816080015134101561259457600080fd5b6000826000015190506125a5612f7a565b60046000838152602001908152602001600020604051806101000160405290816000820154815260200160018201548152602001600282018054600181600116156101000203166002900480601f0160208091040260200160405190810160405280929190818152602001828054600181600116156101000203166002900480156126715780601f1061264657610100808354040283529160200191612671565b820191906000526020600020905b81548152906001019060200180831161265457829003601f168201915b50505050508152602001600382018054600181600116156101000203166002900480601f0160208091040260200160405190810160405280929190818152602001828054600181600116156101000203166002900480156127135780601f106126e857610100808354040283529160200191612713565b820191906000526020600020905b8154815290600101906020018083116126f657829003601f168201915b50505050508152602001600482018054600181600116156101000203166002900480601f0160208091040260200160405190810160405280929190818152602001828054600181600116156101000203166002900480156127b55780601f1061278a576101008083540402835291602001916127b5565b820191906000526020600020905b81548152906001019060200180831161279857829003601f168201915b505050505081526020016005820160009054906101000a900473ffffffffffffffffffffffffffffffffffffffff1673ffffffffffffffffffffffffffffffffffffffff1673ffffffffffffffffffffffffffffffffffffffff168152602001600682018054600181600116156101000203166002900480601f0160208091040260200160405190810160405280929190818152602001828054600181600116156101000203166002900480156128ad5780601f10612882576101008083540402835291602001916128ad565b820191906000526020600020905b81548152906001019060200180831161289057829003601f168201915b505050505081526020016007820160009054906101000a900460ff161515151581525050905060008160a0015190508160e00151156128eb57600080fd5b338560a0019073ffffffffffffffffffffffffffffffffffffffff16908173ffffffffffffffffffffffffffffffffffffffff168152505060018260e00190151590811515815250506040518060400160405280600d81526020017f4e4f5420415641494c41424c45000000000000000000000000000000000000008152508260c001819052508460056000888152602001908152602001600020600082015181600001556020820151816001015560408201518160020190805190602001906129b6929190612e25565b5060608201518160030190805190602001906129d3929190612e25565b506080820151816004015560a08201518160050160006101000a81548173ffffffffffffffffffffffffffffffffffffffff021916908373ffffffffffffffffffffffffffffffffffffffff16021790555060c08201518160050160146101000a81548160ff021916908315150217905550905050816004600085815260200190815260200160002060008201518160000155602082015181600101556040820151816002019080519060200190612a8c929190612e25565b506060820151816003019080519060200190612aa9929190612e25565b506080820151816004019080519060200190612ac6929190612e25565b5060a08201518160050160006101000a81548173ffffffffffffffffffffffffffffffffffffffff021916908373ffffffffffffffffffffffffffffffffffffffff16021790555060c0820151816006019080519060200190612b2a929190612e25565b5060e08201518160070160006101000a81548160ff0219169083151502179055509050508073ffffffffffffffffffffffffffffffffffffffff166108fc349081150290604051600060405180830381858888f19350505050158015612b94573d6000803e3d6000fd5b50604051806060016040528060035481526020018481526020018273ffffffffffffffffffffffffffffffffffffffff16815250600760006003548152602001908152602001600020600082015181600001556020820151816001015560408201518160020160006101000a81548173ffffffffffffffffffffffffffffffffffffffff021916908373ffffffffffffffffffffffffffffffffffffffff1602179055509050506003600081548092919060010191905055507f7b38158a6634145be145833c1de84866d12d56c4192aac774677616e0f2a4d126003548483604051808481526020018381526020018273ffffffffffffffffffffffffffffffffffffffff1673ffffffffffffffffffffffffffffffffffffffff168152602001935050505060405180910390a17f0bc01cc82be868a5a19de4fd9f927b36bc8f38d681bda2f4776bc898432a640b600154866040015187606001518860800151336040518086815260200180602001806020018581526020018473ffffffffffffffffffffffffffffffffffffffff1673ffffffffffffffffffffffffffffffffffffffff168152602001838103835287818151815260200191508051906020019080838360005b83811015612d78578082015181840152602081019050612d5d565b50505050905090810190601f168015612da55780820380516001836020036101000a031916815260200191505b50838103825286818151815260200191508051906020019080838360005b83811015612dde578082015181840152602081019050612dc3565b50505050905090810190601f168015612e0b5780820380516001836020036101000a031916815260200191505b5097505050505050505060405180910390a1505050505050565b828054600181600116156101000203166002900490600052602060002090601f016020900481019282601f10612e6657805160ff1916838001178555612e94565b82800160010185558215612e94579182015b82811115612e93578251825591602001919060010190612e78565b5b509050612ea19190612fd7565b5090565b828054600181600116156101000203166002900490600052602060002090601f016020900481019282601f10612ee657805160ff1916838001178555612f14565b82800160010185558215612f14579182015b82811115612f13578251825591602001919060010190612ef8565b5b509050612f219190612fd7565b5090565b6040518060e001604052806000815260200160008152602001606081526020016060815260200160008152602001600073ffffffffffffffffffffffffffffffffffffffff1681526020016000151581525090565b6040518061010001604052806000815260200160008152602001606081526020016060815260200160608152602001600073ffffffffffffffffffffffffffffffffffffffff168152602001606081526020016000151581525090565b612ff991905b80821115612ff5576000816000905550600101612fdd565b5090565b9056fea265627a7a72315820a59160db1d3e277156bf19fdf8c3ff587dcd7b8d982a8681f9e1e82ab0c89c5964736f6c634300050c0032",
  "source": "pragma solidity ^0.5.1;\ncontract freelancer{\n\n   // enum Status {NOT_AVAILABLE,FOR_SELL,FOR_RENT}\n\n    struct property{\n        uint id;\n        uint bno;\n        string name;\n        string des;\n        string type1;\n        address payable owner;\n        string status;\n        bool purchased;\n    }\n    \n    struct bid{\n        uint checkid;\n        uint bid_id;\n        string name;\n        string message;\n        uint price;\n        address payable bidder;\n        bool status;\n    }\n   struct ledger{\n        uint id;\n        uint p_id;\n        address payable new_owner;\n    }\n\n    \n    uint public propertyCount=0;\n    uint public bidCount=0;\n    uint public linkCount=0;\n    uint public ledgerCount=0;\n\n    mapping (uint=>property) public props;\n    mapping (uint=>bid) public bids;\n    mapping (uint=>bid) public links;\n    mapping (uint=>ledger) public ledgers;\n     \n    \n    event propertyCreated(\n        uint id,\n        uint bno,\n        string name,\n        string des,\n        string type1,\n        address payable owner,\n        string status,\n        bool purchased\n    );\n\n    event bidCreated(\n        uint checkid,\n        uint bid_id,\n        string name,\n        string message,\n        uint price,\n        address payable bidder,\n        bool status\n\n        );\n    event bidPurchased(\n        uint bid_id,\n        string name,\n        string message,\n        uint price,\n        address payable bidder\n        );\n\n    event Sale(\n        uint id,\n        string name,\n        string des,\n        string type1,\n        address payable owner,\n        string status,\n        bool purchased\n\n    );\n\n    event Rent(\n        uint id,\n        string name,\n        string des,\n        string type1,\n        address payable owner,\n        string status,\n        bool purchased\n\n    );\n\n    event Approved(\n        uint checkid,\n        uint bid_id,\n        string name,\n        string message,\n        uint price,\n        address payable bidder,\n        bool status\n    );\n    \n      event ledgerCreated(\n        uint id,\n        uint p_id,\n        address payable new_owner\n    );\n  //  address public constant owner= '0xc55961b8ead792670e5393418950be7597d521ed';\n\n    function createProperty(uint _bno,string memory _name,string memory _des,address payable _owner,string memory _type)public{\n        //require(msg.sender == owner);\n        props[propertyCount]=property(propertyCount,_bno,_name,_des,_type,_owner,\"NOT AVAILABLE\",false);\n        propertyCount++;\n         ledgers[ledgerCount]=ledger(ledgerCount,propertyCount,_owner);\n        ledgerCount++;\n         emit ledgerCreated(ledgerCount,propertyCount,_owner);\n        emit propertyCreated(propertyCount,_bno,_name,_des,_type,_owner,\"NOT AVAILABLE\",false);\n    }\n\n    function forSale(uint _id)public payable{\n       // require(props[_id].owner==msg.sender);\n        props[_id].status=\"SALE\";\n        emit Sale(propertyCount,props[_id].name,props[_id].des,props[_id].type1,props[_id].owner,props[_id].status,props[_id].purchased);\n    }\n\n    function forRent(uint _id)public payable{\n       // require(props[_id].owner==msg.sender);\n        props[_id].status=\"RENT\";\n        emit Sale(propertyCount,props[_id].name,props[_id].des,props[_id].type1,props[_id].owner,props[_id].status,props[_id].purchased);\n    }\n\n    function forApprove(uint _id) public payable{\n\n        bids[_id].status=true;\n        emit Approved(bids[_id].checkid,bidCount,bids[_id].name,bids[_id].message,bids[_id].price,bids[_id].bidder,bids[_id].status);\n    }\n\n\n    function createBid( uint _checkid,string memory _name, string memory _message, uint _price) public{\n        bids[bidCount]=bid(_checkid,bidCount,_name,_message,_price, msg.sender,false);\n        bidCount++;\n        //links[_checkid]=bid(bidCount,_name,_message,_time,_price, msg.sender);\n        //linkCount++;\n        emit bidCreated(_checkid,bidCount,_name,_message,_price, msg.sender,false);\n        \n    }\n\n     function purchaseBid(uint _id) public payable  {\n        //fetch the bid\n        bid memory _bid = bids[_id];\n        //fetch the owner \n        address payable _buyer =_bid.bidder;\n       // address payable _seller =_bid.bidder;\n        // Make sure the product id is valid\n        require (_bid.bid_id >0 && _bid.bid_id< bidCount);\n        // enough ether\n        require (msg.value >= _bid.price);\n         //fetch the work\n         uint  property_id =_bid.checkid;\n\n         property memory _property = props[property_id];\n\n         address payable _seller= _property.owner;\n         //work is not purchased\n         require (!_property.purchased);\n\n         //seller is not buyer\n         //require (_seller!=msg.sender);\n         \n         \n        //transfer ownership to the buyer\n         _bid.bidder= msg.sender;\n         //mark as purchased\n        _property.purchased = true;\n        _property.status=\"NOT AVAILABLE\";\n         //update the product\n         bids[_id]=_bid;\n         props[property_id]=_property;\n         //pay the seller through ether\n         address(_seller).transfer(msg.value);\n         //trigger an event\n         ledgers[ledgerCount]=ledger(ledgerCount,property_id,_seller);\n         ledgerCount ++;\n         emit ledgerCreated(ledgerCount,property_id,_seller);\n         emit bidPurchased(bidCount,_bid.name,_bid.message,_bid.price, msg.sender);\n\n    }    \n\n}",
  "sourcePath": "/home/neha/Desktop/Ethereum/shelterhub1/client/src/contracts/freelancer.sol",
  "compiler": {
    "name": "solc",
    "version": "0.5.12+commit.7709ece9.Emscripten.clang"
  },
  "schemaVersion": "3.0.20",
  "updatedAt": "2020-02-22T18:07:32.979Z",
  "networkType": "ethereum",
  "devdoc": {
    "methods": {}
  },
  "userdoc": {
    "methods": {}
  }
}