{
  "contractName": "freelancer",
  "abi": [
    {
      "anonymous": false,
      "inputs": [
        {
          "indexed": false,
          "internalType": "uint256",
          "name": "id",
          "type": "uint256"
        },
        {
          "indexed": false,
          "internalType": "string",
          "name": "name",
          "type": "string"
        },
        {
          "indexed": false,
          "internalType": "string",
          "name": "des",
          "type": "string"
        },
        {
          "indexed": false,
          "internalType": "string",
          "name": "type1",
          "type": "string"
        },
        {
          "indexed": false,
          "internalType": "address payable",
          "name": "owner",
          "type": "address"
        },
        {
          "indexed": false,
          "internalType": "string",
          "name": "status",
          "type": "string"
        },
        {
          "indexed": false,
          "internalType": "bool",
          "name": "purchased",
          "type": "bool"
        }
      ],
      "name": "Sale",
      "type": "event"
    },
    {
      "anonymous": false,
      "inputs": [
        {
          "indexed": false,
          "internalType": "uint256",
          "name": "checkid",
          "type": "uint256"
        },
        {
          "indexed": false,
          "internalType": "uint256",
          "name": "bid_id",
          "type": "uint256"
        },
        {
          "indexed": false,
          "internalType": "string",
          "name": "name",
          "type": "string"
        },
        {
          "indexed": false,
          "internalType": "string",
          "name": "message",
          "type": "string"
        },
        {
          "indexed": false,
          "internalType": "uint256",
          "name": "price",
          "type": "uint256"
        },
        {
          "indexed": false,
          "internalType": "address payable",
          "name": "bidder",
          "type": "address"
        }
      ],
      "name": "bidCreated",
      "type": "event"
    },
    {
      "anonymous": false,
      "inputs": [
        {
          "indexed": false,
          "internalType": "uint256",
          "name": "bid_id",
          "type": "uint256"
        },
        {
          "indexed": false,
          "internalType": "string",
          "name": "name",
          "type": "string"
        },
        {
          "indexed": false,
          "internalType": "string",
          "name": "message",
          "type": "string"
        },
        {
          "indexed": false,
          "internalType": "uint256",
          "name": "price",
          "type": "uint256"
        },
        {
          "indexed": false,
          "internalType": "address payable",
          "name": "bidder",
          "type": "address"
        }
      ],
      "name": "bidPurchased",
      "type": "event"
    },
    {
      "anonymous": false,
      "inputs": [
        {
          "indexed": false,
          "internalType": "uint256",
          "name": "id",
          "type": "uint256"
        },
        {
          "indexed": false,
          "internalType": "string",
          "name": "name",
          "type": "string"
        },
        {
          "indexed": false,
          "internalType": "string",
          "name": "des",
          "type": "string"
        },
        {
          "indexed": false,
          "internalType": "string",
          "name": "type1",
          "type": "string"
        },
        {
          "indexed": false,
          "internalType": "address payable",
          "name": "owner",
          "type": "address"
        },
        {
          "indexed": false,
          "internalType": "string",
          "name": "status",
          "type": "string"
        },
        {
          "indexed": false,
          "internalType": "bool",
          "name": "purchased",
          "type": "bool"
        }
      ],
      "name": "propertyCreated",
      "type": "event"
    },
    {
      "constant": true,
      "inputs": [],
      "name": "bidCount",
      "outputs": [
        {
          "internalType": "uint256",
          "name": "",
          "type": "uint256"
        }
      ],
      "payable": false,
      "stateMutability": "view",
      "type": "function"
    },
    {
      "constant": true,
      "inputs": [
        {
          "internalType": "uint256",
          "name": "",
          "type": "uint256"
        }
      ],
      "name": "bids",
      "outputs": [
        {
          "internalType": "uint256",
          "name": "checkid",
          "type": "uint256"
        },
        {
          "internalType": "uint256",
          "name": "bid_id",
          "type": "uint256"
        },
        {
          "internalType": "string",
          "name": "name",
          "type": "string"
        },
        {
          "internalType": "string",
          "name": "message",
          "type": "string"
        },
        {
          "internalType": "uint256",
          "name": "price",
          "type": "uint256"
        },
        {
          "internalType": "address payable",
          "name": "bidder",
          "type": "address"
        }
      ],
      "payable": false,
      "stateMutability": "view",
      "type": "function"
    },
    {
      "constant": true,
      "inputs": [],
      "name": "linkCount",
      "outputs": [
        {
          "internalType": "uint256",
          "name": "",
          "type": "uint256"
        }
      ],
      "payable": false,
      "stateMutability": "view",
      "type": "function"
    },
    {
      "constant": true,
      "inputs": [
        {
          "internalType": "uint256",
          "name": "",
          "type": "uint256"
        }
      ],
      "name": "links",
      "outputs": [
        {
          "internalType": "uint256",
          "name": "checkid",
          "type": "uint256"
        },
        {
          "internalType": "uint256",
          "name": "bid_id",
          "type": "uint256"
        },
        {
          "internalType": "string",
          "name": "name",
          "type": "string"
        },
        {
          "internalType": "string",
          "name": "message",
          "type": "string"
        },
        {
          "internalType": "uint256",
          "name": "price",
          "type": "uint256"
        },
        {
          "internalType": "address payable",
          "name": "bidder",
          "type": "address"
        }
      ],
      "payable": false,
      "stateMutability": "view",
      "type": "function"
    },
    {
      "constant": true,
      "inputs": [],
      "name": "propertyCount",
      "outputs": [
        {
          "internalType": "uint256",
          "name": "",
          "type": "uint256"
        }
      ],
      "payable": false,
      "stateMutability": "view",
      "type": "function"
    },
    {
      "constant": true,
      "inputs": [
        {
          "internalType": "uint256",
          "name": "",
          "type": "uint256"
        }
      ],
      "name": "props",
      "outputs": [
        {
          "internalType": "uint256",
          "name": "id",
          "type": "uint256"
        },
        {
          "internalType": "string",
          "name": "name",
          "type": "string"
        },
        {
          "internalType": "string",
          "name": "des",
          "type": "string"
        },
        {
          "internalType": "string",
          "name": "type1",
          "type": "string"
        },
        {
          "internalType": "address payable",
          "name": "owner",
          "type": "address"
        },
        {
          "internalType": "string",
          "name": "status",
          "type": "string"
        },
        {
          "internalType": "bool",
          "name": "purchased",
          "type": "bool"
        }
      ],
      "payable": false,
      "stateMutability": "view",
      "type": "function"
    },
    {
      "constant": false,
      "inputs": [
        {
          "internalType": "string",
          "name": "_name",
          "type": "string"
        },
        {
          "internalType": "string",
          "name": "_des",
          "type": "string"
        },
        {
          "internalType": "address payable",
          "name": "_owner",
          "type": "address"
        },
        {
          "internalType": "string",
          "name": "_type",
          "type": "string"
        }
      ],
      "name": "createProperty",
      "outputs": [],
      "payable": false,
      "stateMutability": "nonpayable",
      "type": "function"
    },
    {
      "constant": false,
      "inputs": [
        {
          "internalType": "uint256",
          "name": "_id",
          "type": "uint256"
        }
      ],
      "name": "forSale",
      "outputs": [],
      "payable": true,
      "stateMutability": "payable",
      "type": "function"
    },
    {
      "constant": false,
      "inputs": [
        {
          "internalType": "uint256",
          "name": "_checkid",
          "type": "uint256"
        },
        {
          "internalType": "string",
          "name": "_name",
          "type": "string"
        },
        {
          "internalType": "string",
          "name": "_message",
          "type": "string"
        },
        {
          "internalType": "uint256",
          "name": "_price",
          "type": "uint256"
        }
      ],
      "name": "createBid",
      "outputs": [],
      "payable": false,
      "stateMutability": "nonpayable",
      "type": "function"
    },
    {
      "constant": false,
      "inputs": [
        {
          "internalType": "uint256",
          "name": "_id",
          "type": "uint256"
        }
      ],
      "name": "purchaseBid",
      "outputs": [],
      "payable": true,
      "stateMutability": "payable",
      "type": "function"
    }
  ],
  "bytecode": "0x6080604052600080556000600155600060025534801561001e57600080fd5b506126668061002e6000396000f3fe6080604052600436106100915760003560e01c8063aac4767911610059578063aac476791461071d578063b40a562714610748578063c361a33514610773578063fda54c161461079e578063fe473108146109db57610091565b80630da3c49c146100965780630e205c74146102095780632831f2f41461041f5780634423c5f11461044d578063881d8a40146105b5575b600080fd5b3480156100a257600080fd5b50610207600480360360808110156100b957600080fd5b8101908080359060200190929190803590602001906401000000008111156100e057600080fd5b8201836020820111156100f257600080fd5b8035906020019184600183028401116401000000008311171561011457600080fd5b91908080601f016020809104026020016040519081016040528093929190818152602001838380828437600081840152601f19601f8201169050808301925050505050505091929192908035906020019064010000000081111561017757600080fd5b82018360208201111561018957600080fd5b803590602001918460018302840111640100000000831117156101ab57600080fd5b91908080601f016020809104026020016040519081016040528093929190818152602001838380828437600081840152601f19601f82011690508083019250505050505050919291929080359060200190929190505050610a09565b005b34801561021557600080fd5b5061041d6004803603608081101561022c57600080fd5b810190808035906020019064010000000081111561024957600080fd5b82018360208201111561025b57600080fd5b8035906020019184600183028401116401000000008311171561027d57600080fd5b91908080601f016020809104026020016040519081016040528093929190818152602001838380828437600081840152601f19601f820116905080830192505050505050509192919290803590602001906401000000008111156102e057600080fd5b8201836020820111156102f257600080fd5b8035906020019184600183028401116401000000008311171561031457600080fd5b91908080601f016020809104026020016040519081016040528093929190818152602001838380828437600081840152601f19601f820116905080830192505050505050509192919290803573ffffffffffffffffffffffffffffffffffffffff1690602001909291908035906020019064010000000081111561039757600080fd5b8201836020820111156103a957600080fd5b803590602001918460018302840111640100000000831117156103cb57600080fd5b91908080601f016020809104026020016040519081016040528093929190818152602001838380828437600081840152601f19601f820116905080830192505050505050509192919290505050610c74565b005b61044b6004803603602081101561043557600080fd5b8101908080359060200190929190505050611004565b005b34801561045957600080fd5b506104866004803603602081101561047057600080fd5b81019080803590602001909291905050506115b6565b6040518087815260200186815260200180602001806020018581526020018473ffffffffffffffffffffffffffffffffffffffff1673ffffffffffffffffffffffffffffffffffffffff168152602001838103835287818151815260200191508051906020019080838360005b8381101561050e5780820151818401526020810190506104f3565b50505050905090810190601f16801561053b5780820380516001836020036101000a031916815260200191505b50838103825286818151815260200191508051906020019080838360005b83811015610574578082015181840152602081019050610559565b50505050905090810190601f1680156105a15780820380516001836020036101000a031916815260200191505b509850505050505050505060405180910390f35b3480156105c157600080fd5b506105ee600480360360208110156105d857600080fd5b8101908080359060200190929190505050611742565b6040518087815260200186815260200180602001806020018581526020018473ffffffffffffffffffffffffffffffffffffffff1673ffffffffffffffffffffffffffffffffffffffff168152602001838103835287818151815260200191508051906020019080838360005b8381101561067657808201518184015260208101905061065b565b50505050905090810190601f1680156106a35780820380516001836020036101000a031916815260200191505b50838103825286818151815260200191508051906020019080838360005b838110156106dc5780820151818401526020810190506106c1565b50505050905090810190601f1680156107095780820380516001836020036101000a031916815260200191505b509850505050505050505060405180910390f35b34801561072957600080fd5b506107326118ce565b6040518082815260200191505060405180910390f35b34801561075457600080fd5b5061075d6118d4565b6040518082815260200191505060405180910390f35b34801561077f57600080fd5b506107886118da565b6040518082815260200191505060405180910390f35b3480156107aa57600080fd5b506107d7600480360360208110156107c157600080fd5b81019080803590602001909291905050506118e0565b604051808881526020018060200180602001806020018773ffffffffffffffffffffffffffffffffffffffff1673ffffffffffffffffffffffffffffffffffffffff168152602001806020018615151515815260200185810385528b818151815260200191508051906020019080838360005b8381101561086557808201518184015260208101905061084a565b50505050905090810190601f1680156108925780820380516001836020036101000a031916815260200191505b5085810384528a818151815260200191508051906020019080838360005b838110156108cb5780820151818401526020810190506108b0565b50505050905090810190601f1680156108f85780820380516001836020036101000a031916815260200191505b50858103835289818151815260200191508051906020019080838360005b83811015610931578082015181840152602081019050610916565b50505050905090810190601f16801561095e5780820380516001836020036101000a031916815260200191505b50858103825287818151815260200191508051906020019080838360005b8381101561099757808201518184015260208101905061097c565b50505050905090810190601f1680156109c45780820380516001836020036101000a031916815260200191505b509b50505050505050505050505060405180910390f35b610a07600480360360208110156109f157600080fd5b8101908080359060200190929190505050611baf565b005b6040518060c0016040528085815260200160015481526020018481526020018381526020018281526020013373ffffffffffffffffffffffffffffffffffffffff1681525060046000600154815260200190815260200160002060008201518160000155602082015181600101556040820151816002019080519060200190610a939291906124eb565b506060820151816003019080519060200190610ab09291906124eb565b506080820151816004015560a08201518160050160006101000a81548173ffffffffffffffffffffffffffffffffffffffff021916908373ffffffffffffffffffffffffffffffffffffffff1602179055509050506001600081548092919060010191905055507fc61e5900e1ea818deebdd41e44fc3b3f147bc3ce0d66f9f8862b4a03235ab72784600154858585336040518087815260200186815260200180602001806020018581526020018473ffffffffffffffffffffffffffffffffffffffff1673ffffffffffffffffffffffffffffffffffffffff168152602001838103835287818151815260200191508051906020019080838360005b83811015610bc8578082015181840152602081019050610bad565b50505050905090810190601f168015610bf55780820380516001836020036101000a031916815260200191505b50838103825286818151815260200191508051906020019080838360005b83811015610c2e578082015181840152602081019050610c13565b50505050905090810190601f168015610c5b5780820380516001836020036101000a031916815260200191505b509850505050505050505060405180910390a150505050565b6040518060e0016040528060005481526020018581526020018481526020018281526020018373ffffffffffffffffffffffffffffffffffffffff1681526020016040518060400160405280600d81526020017f4e4f5420415641494c41424c45000000000000000000000000000000000000008152508152602001600015158152506003600080548152602001908152602001600020600082015181600001556020820151816001019080519060200190610d319291906124eb565b506040820151816002019080519060200190610d4e9291906124eb565b506060820151816003019080519060200190610d6b9291906124eb565b5060808201518160040160006101000a81548173ffffffffffffffffffffffffffffffffffffffff021916908373ffffffffffffffffffffffffffffffffffffffff16021790555060a0820151816005019080519060200190610dcf9291906124eb565b5060c08201518160060160006101000a81548160ff02191690831515021790555090505060008081548092919060010191905055507f4cb9e3bbf25cf34b7bdcec73c2b7d5e6cb44e285fb6a0e0d1afa8afbfd54dbe3600054858584866000604051808781526020018060200180602001806020018673ffffffffffffffffffffffffffffffffffffffff1673ffffffffffffffffffffffffffffffffffffffff168152602001806020018615151515815260200185810385528a818151815260200191508051906020019080838360005b83811015610ebc578082015181840152602081019050610ea1565b50505050905090810190601f168015610ee95780820380516001836020036101000a031916815260200191505b50858103845289818151815260200191508051906020019080838360005b83811015610f22578082015181840152602081019050610f07565b50505050905090810190601f168015610f4f5780820380516001836020036101000a031916815260200191505b50858103835288818151815260200191508051906020019080838360005b83811015610f88578082015181840152602081019050610f6d565b50505050905090810190601f168015610fb55780820380516001836020036101000a031916815260200191505b508581038252600d8152602001807f4e4f5420415641494c41424c45000000000000000000000000000000000000008152506020019a505050505050505050505060405180910390a150505050565b61100c61256b565b600360008381526020019081526020016000206040518060e001604052908160008201548152602001600182018054600181600116156101000203166002900480601f0160208091040260200160405190810160405280929190818152602001828054600181600116156101000203166002900480156110cd5780601f106110a2576101008083540402835291602001916110cd565b820191906000526020600020905b8154815290600101906020018083116110b057829003601f168201915b50505050508152602001600282018054600181600116156101000203166002900480601f01602080910402602001604051908101604052809291908181526020018280546001816001161561010002031660029004801561116f5780601f106111445761010080835404028352916020019161116f565b820191906000526020600020905b81548152906001019060200180831161115257829003601f168201915b50505050508152602001600382018054600181600116156101000203166002900480601f0160208091040260200160405190810160405280929190818152602001828054600181600116156101000203166002900480156112115780601f106111e657610100808354040283529160200191611211565b820191906000526020600020905b8154815290600101906020018083116111f457829003601f168201915b505050505081526020016004820160009054906101000a900473ffffffffffffffffffffffffffffffffffffffff1673ffffffffffffffffffffffffffffffffffffffff1673ffffffffffffffffffffffffffffffffffffffff168152602001600582018054600181600116156101000203166002900480601f0160208091040260200160405190810160405280929190818152602001828054600181600116156101000203166002900480156113095780601f106112de57610100808354040283529160200191611309565b820191906000526020600020905b8154815290600101906020018083116112ec57829003601f168201915b505050505081526020016006820160009054906101000a900460ff16151515158152505090506040518060400160405280600481526020017f53414c45000000000000000000000000000000000000000000000000000000008152508160a001819052507f551d3a9ca8cbcd96328d9dd748056307e2ac9d8d62cc5cafd352c772537903a560005482602001518360400151846060015185608001518660a001518760c00151604051808881526020018060200180602001806020018773ffffffffffffffffffffffffffffffffffffffff1673ffffffffffffffffffffffffffffffffffffffff168152602001806020018615151515815260200185810385528b818151815260200191508051906020019080838360005b8381101561143d578082015181840152602081019050611422565b50505050905090810190601f16801561146a5780820380516001836020036101000a031916815260200191505b5085810384528a818151815260200191508051906020019080838360005b838110156114a3578082015181840152602081019050611488565b50505050905090810190601f1680156114d05780820380516001836020036101000a031916815260200191505b50858103835289818151815260200191508051906020019080838360005b838110156115095780820151818401526020810190506114ee565b50505050905090810190601f1680156115365780820380516001836020036101000a031916815260200191505b50858103825287818151815260200191508051906020019080838360005b8381101561156f578082015181840152602081019050611554565b50505050905090810190601f16801561159c5780820380516001836020036101000a031916815260200191505b509b50505050505050505050505060405180910390a15050565b6004602052806000526040600020600091509050806000015490806001015490806002018054600181600116156101000203166002900480601f01602080910402602001604051908101604052809291908181526020018280546001816001161561010002031660029004801561166e5780601f106116435761010080835404028352916020019161166e565b820191906000526020600020905b81548152906001019060200180831161165157829003601f168201915b505050505090806003018054600181600116156101000203166002900480601f01602080910402602001604051908101604052809291908181526020018280546001816001161561010002031660029004801561170c5780601f106116e15761010080835404028352916020019161170c565b820191906000526020600020905b8154815290600101906020018083116116ef57829003601f168201915b5050505050908060040154908060050160009054906101000a900473ffffffffffffffffffffffffffffffffffffffff16905086565b6005602052806000526040600020600091509050806000015490806001015490806002018054600181600116156101000203166002900480601f0160208091040260200160405190810160405280929190818152602001828054600181600116156101000203166002900480156117fa5780601f106117cf576101008083540402835291602001916117fa565b820191906000526020600020905b8154815290600101906020018083116117dd57829003601f168201915b505050505090806003018054600181600116156101000203166002900480601f0160208091040260200160405190810160405280929190818152602001828054600181600116156101000203166002900480156118985780601f1061186d57610100808354040283529160200191611898565b820191906000526020600020905b81548152906001019060200180831161187b57829003601f168201915b5050505050908060040154908060050160009054906101000a900473ffffffffffffffffffffffffffffffffffffffff16905086565b60025481565b60015481565b60005481565b6003602052806000526040600020600091509050806000015490806001018054600181600116156101000203166002900480601f0160208091040260200160405190810160405280929190818152602001828054600181600116156101000203166002900480156119925780601f1061196757610100808354040283529160200191611992565b820191906000526020600020905b81548152906001019060200180831161197557829003601f168201915b505050505090806002018054600181600116156101000203166002900480601f016020809104026020016040519081016040528092919081815260200182805460018160011615610100020316600290048015611a305780601f10611a0557610100808354040283529160200191611a30565b820191906000526020600020905b815481529060010190602001808311611a1357829003601f168201915b505050505090806003018054600181600116156101000203166002900480601f016020809104026020016040519081016040528092919081815260200182805460018160011615610100020316600290048015611ace5780601f10611aa357610100808354040283529160200191611ace565b820191906000526020600020905b815481529060010190602001808311611ab157829003601f168201915b5050505050908060040160009054906101000a900473ffffffffffffffffffffffffffffffffffffffff1690806005018054600181600116156101000203166002900480601f016020809104026020016040519081016040528092919081815260200182805460018160011615610100020316600290048015611b925780601f10611b6757610100808354040283529160200191611b92565b820191906000526020600020905b815481529060010190602001808311611b7557829003601f168201915b5050505050908060060160009054906101000a900460ff16905087565b611bb76125c0565b600460008381526020019081526020016000206040518060c00160405290816000820154815260200160018201548152602001600282018054600181600116156101000203166002900480601f016020809104026020016040519081016040528092919081815260200182805460018160011615610100020316600290048015611c825780601f10611c5757610100808354040283529160200191611c82565b820191906000526020600020905b815481529060010190602001808311611c6557829003601f168201915b50505050508152602001600382018054600181600116156101000203166002900480601f016020809104026020016040519081016040528092919081815260200182805460018160011615610100020316600290048015611d245780601f10611cf957610100808354040283529160200191611d24565b820191906000526020600020905b815481529060010190602001808311611d0757829003601f168201915b50505050508152602001600482015481526020016005820160009054906101000a900473ffffffffffffffffffffffffffffffffffffffff1673ffffffffffffffffffffffffffffffffffffffff1673ffffffffffffffffffffffffffffffffffffffff1681525050905060008160a00151905060008260200151118015611db157506001548260200151105b611dba57600080fd5b8160800151341015611dcb57600080fd5b600082600001519050611ddc61256b565b600360008381526020019081526020016000206040518060e001604052908160008201548152602001600182018054600181600116156101000203166002900480601f016020809104026020016040519081016040528092919081815260200182805460018160011615610100020316600290048015611e9d5780601f10611e7257610100808354040283529160200191611e9d565b820191906000526020600020905b815481529060010190602001808311611e8057829003601f168201915b50505050508152602001600282018054600181600116156101000203166002900480601f016020809104026020016040519081016040528092919081815260200182805460018160011615610100020316600290048015611f3f5780601f10611f1457610100808354040283529160200191611f3f565b820191906000526020600020905b815481529060010190602001808311611f2257829003601f168201915b50505050508152602001600382018054600181600116156101000203166002900480601f016020809104026020016040519081016040528092919081815260200182805460018160011615610100020316600290048015611fe15780601f10611fb657610100808354040283529160200191611fe1565b820191906000526020600020905b815481529060010190602001808311611fc457829003601f168201915b505050505081526020016004820160009054906101000a900473ffffffffffffffffffffffffffffffffffffffff1673ffffffffffffffffffffffffffffffffffffffff1673ffffffffffffffffffffffffffffffffffffffff168152602001600582018054600181600116156101000203166002900480601f0160208091040260200160405190810160405280929190818152602001828054600181600116156101000203166002900480156120d95780601f106120ae576101008083540402835291602001916120d9565b820191906000526020600020905b8154815290600101906020018083116120bc57829003601f168201915b505050505081526020016006820160009054906101000a900460ff16151515158152505090508060c001511561210e57600080fd5b3373ffffffffffffffffffffffffffffffffffffffff168373ffffffffffffffffffffffffffffffffffffffff16141561214757600080fd5b338460a0019073ffffffffffffffffffffffffffffffffffffffff16908173ffffffffffffffffffffffffffffffffffffffff168152505060018160c00190151590811515815250508360046000878152602001908152602001600020600082015181600001556020820151816001015560408201518160020190805190602001906121d49291906124eb565b5060608201518160030190805190602001906121f19291906124eb565b506080820151816004015560a08201518160050160006101000a81548173ffffffffffffffffffffffffffffffffffffffff021916908373ffffffffffffffffffffffffffffffffffffffff16021790555090505080600360008481526020019081526020016000206000820151816000015560208201518160010190805190602001906122809291906124eb565b50604082015181600201908051906020019061229d9291906124eb565b5060608201518160030190805190602001906122ba9291906124eb565b5060808201518160040160006101000a81548173ffffffffffffffffffffffffffffffffffffffff021916908373ffffffffffffffffffffffffffffffffffffffff16021790555060a082015181600501908051906020019061231e9291906124eb565b5060c08201518160060160006101000a81548160ff0219169083151502179055509050508273ffffffffffffffffffffffffffffffffffffffff166108fc349081150290604051600060405180830381858888f19350505050158015612388573d6000803e3d6000fd5b507f0bc01cc82be868a5a19de4fd9f927b36bc8f38d681bda2f4776bc898432a640b600154856040015186606001518760800151336040518086815260200180602001806020018581526020018473ffffffffffffffffffffffffffffffffffffffff1673ffffffffffffffffffffffffffffffffffffffff168152602001838103835287818151815260200191508051906020019080838360005b8381101561243f578082015181840152602081019050612424565b50505050905090810190601f16801561246c5780820380516001836020036101000a031916815260200191505b50838103825286818151815260200191508051906020019080838360005b838110156124a557808201518184015260208101905061248a565b50505050905090810190601f1680156124d25780820380516001836020036101000a031916815260200191505b5097505050505050505060405180910390a15050505050565b828054600181600116156101000203166002900490600052602060002090601f016020900481019282601f1061252c57805160ff191683800117855561255a565b8280016001018555821561255a579182015b8281111561255957825182559160200191906001019061253e565b5b509050612567919061260c565b5090565b6040518060e0016040528060008152602001606081526020016060815260200160608152602001600073ffffffffffffffffffffffffffffffffffffffff168152602001606081526020016000151581525090565b6040518060c001604052806000815260200160008152602001606081526020016060815260200160008152602001600073ffffffffffffffffffffffffffffffffffffffff1681525090565b61262e91905b8082111561262a576000816000905550600101612612565b5090565b9056fea265627a7a72315820463f366aaed4478c986706820624cb87ec7e53fc5f02d208852cea661c696f8864736f6c634300050c0032",
  "source": "pragma solidity ^0.5.1;\ncontract freelancer{\n\n   // enum Status {NOT_AVAILABLE,FOR_SELL,FOR_RENT}\n\n    struct property{\n        uint id;\n        string name;\n        string des;\n        string type1;\n        address payable owner;\n        string status;\n        bool purchased;\n    }\n\n    struct bid{\n        uint checkid;\n        uint bid_id;\n        string name;\n        string message;\n        uint price;\n        address payable bidder;\n    }\n\n    \n    uint public propertyCount=0;\n    uint public bidCount=0;\n    uint public linkCount=0;\n    \n    mapping (uint=>property) public props;\n    mapping (uint=>bid) public bids;\n    mapping (uint=>bid) public links;\n    \n    \n    event propertyCreated(\n        uint id,\n        string name,\n        string des,\n        string type1,\n        address payable owner,\n        string status,\n        bool purchased\n    );\n\n    event bidCreated(\n        uint checkid,\n        uint bid_id,\n        string name,\n        string message,\n        uint price,\n        address payable bidder\n\n        );\n    event bidPurchased(\n        uint bid_id,\n        string name,\n        string message,\n        uint price,\n        address payable bidder\n        );\n\n    event Sale(\n        uint id,\n        string name,\n        string des,\n        string type1,\n        address payable owner,\n        string status,\n        bool purchased\n\n    );\n    \n  //  address public constant owner= '0xc55961b8ead792670e5393418950be7597d521ed';\n\n    function createProperty(string memory _name,string memory _des,address payable _owner,string memory _type)public{\n        //require(msg.sender == owner);\n        props[propertyCount]=property(propertyCount,_name,_des,_type,_owner,\"NOT AVAILABLE\",false);\n        propertyCount++;\n        emit propertyCreated(propertyCount,_name,_des,_type,_owner,\"NOT AVAILABLE\",false);\n    }\n\n    function forSale(uint _id)public payable{\n       // require(props[_id].owner==msg.sender);\n        property memory _property = props[_id];\n        _property.status=\"SALE\";\n        emit Sale(propertyCount,_property.name,_property.des,_property.type1,_property.owner,_property.status,_property.purchased);\n    }\n\n    function createBid( uint _checkid,string memory _name, string memory _message, uint _price) public{\n        bids[bidCount]=bid(_checkid,bidCount,_name,_message,_price, msg.sender);\n        bidCount++;\n        //links[_checkid]=bid(bidCount,_name,_message,_time,_price, msg.sender);\n        //linkCount++;\n        emit bidCreated(_checkid,bidCount,_name,_message,_price, msg.sender);\n        \n    }\n\n     function purchaseBid(uint _id) public payable  {\n        //fetch the bid\n        bid memory _bid = bids[_id];\n        //fetch the owner \n        address payable _seller =_bid.bidder;\n        // Make sure the product id is valid\n        require (_bid.bid_id >0 && _bid.bid_id< bidCount);\n        // enough ether\n        require (msg.value >= _bid.price);\n        \n        //fetch the work\n        uint  property_id =_bid.checkid;\n        property memory _property = props[property_id];\n         //work is not purchased\n         require (!_property.purchased);\n\n         //seller is not buyer\n         require (_seller!=msg.sender);\n         \n         \n        //transfer ownership to the buyer\n        _bid.bidder= msg.sender;\n         //mark as purchased\n        _property.purchased = true;\n         //update the product\n         bids[_id]=_bid;\n         props[property_id]=_property;\n         //pay the seller through ether\n         address(_seller).transfer(msg.value);\n         //trigger an event\n\n         emit bidPurchased(bidCount,_bid.name,_bid.message,_bid.price, msg.sender);\n\n    }    \n\n}",
  "sourcePath": "/home/neha/Desktop/Ethereum/shelterhub1/client/src/contracts/freelancer.sol",
  "compiler": {
    "name": "solc",
    "version": "0.5.12+commit.7709ece9.Emscripten.clang"
  },
  "schemaVersion": "3.0.20",
  "updatedAt": "2020-02-11T19:51:52.158Z",
  "networkType": "ethereum",
  "devdoc": {
    "methods": {}
  },
  "userdoc": {
    "methods": {}
  }
}