{
  "contractName": "freelancer",
  "abi": [
    {
      "anonymous": false,
      "inputs": [
        {
          "indexed": false,
          "internalType": "uint256",
          "name": "checkid",
          "type": "uint256"
        },
        {
          "indexed": false,
          "internalType": "uint256",
          "name": "bid_id",
          "type": "uint256"
        },
        {
          "indexed": false,
          "internalType": "string",
          "name": "name",
          "type": "string"
        },
        {
          "indexed": false,
          "internalType": "string",
          "name": "message",
          "type": "string"
        },
        {
          "indexed": false,
          "internalType": "uint256",
          "name": "price",
          "type": "uint256"
        },
        {
          "indexed": false,
          "internalType": "address payable",
          "name": "bidder",
          "type": "address"
        },
        {
          "indexed": false,
          "internalType": "bool",
          "name": "status",
          "type": "bool"
        }
      ],
      "name": "Approved",
      "type": "event"
    },
    {
      "anonymous": false,
      "inputs": [
        {
          "indexed": false,
          "internalType": "uint256",
          "name": "id",
          "type": "uint256"
        },
        {
          "indexed": false,
          "internalType": "string",
          "name": "name",
          "type": "string"
        },
        {
          "indexed": false,
          "internalType": "string",
          "name": "des",
          "type": "string"
        },
        {
          "indexed": false,
          "internalType": "string",
          "name": "type1",
          "type": "string"
        },
        {
          "indexed": false,
          "internalType": "address payable",
          "name": "owner",
          "type": "address"
        },
        {
          "indexed": false,
          "internalType": "string",
          "name": "status",
          "type": "string"
        },
        {
          "indexed": false,
          "internalType": "bool",
          "name": "purchased",
          "type": "bool"
        }
      ],
      "name": "Rent",
      "type": "event"
    },
    {
      "anonymous": false,
      "inputs": [
        {
          "indexed": false,
          "internalType": "uint256",
          "name": "id",
          "type": "uint256"
        },
        {
          "indexed": false,
          "internalType": "string",
          "name": "name",
          "type": "string"
        },
        {
          "indexed": false,
          "internalType": "string",
          "name": "des",
          "type": "string"
        },
        {
          "indexed": false,
          "internalType": "string",
          "name": "type1",
          "type": "string"
        },
        {
          "indexed": false,
          "internalType": "address payable",
          "name": "owner",
          "type": "address"
        },
        {
          "indexed": false,
          "internalType": "string",
          "name": "status",
          "type": "string"
        },
        {
          "indexed": false,
          "internalType": "bool",
          "name": "purchased",
          "type": "bool"
        }
      ],
      "name": "Sale",
      "type": "event"
    },
    {
      "anonymous": false,
      "inputs": [
        {
          "indexed": false,
          "internalType": "uint256",
          "name": "checkid",
          "type": "uint256"
        },
        {
          "indexed": false,
          "internalType": "uint256",
          "name": "bid_id",
          "type": "uint256"
        },
        {
          "indexed": false,
          "internalType": "string",
          "name": "name",
          "type": "string"
        },
        {
          "indexed": false,
          "internalType": "string",
          "name": "message",
          "type": "string"
        },
        {
          "indexed": false,
          "internalType": "uint256",
          "name": "price",
          "type": "uint256"
        },
        {
          "indexed": false,
          "internalType": "address payable",
          "name": "bidder",
          "type": "address"
        },
        {
          "indexed": false,
          "internalType": "bool",
          "name": "status",
          "type": "bool"
        }
      ],
      "name": "bidCreated",
      "type": "event"
    },
    {
      "anonymous": false,
      "inputs": [
        {
          "indexed": false,
          "internalType": "uint256",
          "name": "bid_id",
          "type": "uint256"
        },
        {
          "indexed": false,
          "internalType": "string",
          "name": "name",
          "type": "string"
        },
        {
          "indexed": false,
          "internalType": "string",
          "name": "message",
          "type": "string"
        },
        {
          "indexed": false,
          "internalType": "uint256",
          "name": "price",
          "type": "uint256"
        },
        {
          "indexed": false,
          "internalType": "address payable",
          "name": "bidder",
          "type": "address"
        }
      ],
      "name": "bidPurchased",
      "type": "event"
    },
    {
      "anonymous": false,
      "inputs": [
        {
          "indexed": false,
          "internalType": "uint256",
          "name": "id",
          "type": "uint256"
        },
        {
          "indexed": false,
          "internalType": "uint256",
          "name": "p_id",
          "type": "uint256"
        },
        {
          "indexed": false,
          "internalType": "address payable",
          "name": "new_owner",
          "type": "address"
        },
        {
          "indexed": false,
          "internalType": "uint256",
          "name": "time",
          "type": "uint256"
        }
      ],
      "name": "ledgerCreated",
      "type": "event"
    },
    {
      "anonymous": false,
      "inputs": [
        {
          "indexed": false,
          "internalType": "uint256",
          "name": "id",
          "type": "uint256"
        },
        {
          "indexed": false,
          "internalType": "uint256",
          "name": "bno",
          "type": "uint256"
        },
        {
          "indexed": false,
          "internalType": "string",
          "name": "name",
          "type": "string"
        },
        {
          "indexed": false,
          "internalType": "string",
          "name": "des",
          "type": "string"
        },
        {
          "indexed": false,
          "internalType": "string",
          "name": "type1",
          "type": "string"
        },
        {
          "indexed": false,
          "internalType": "address payable",
          "name": "owner",
          "type": "address"
        },
        {
          "indexed": false,
          "internalType": "string",
          "name": "location",
          "type": "string"
        },
        {
          "indexed": false,
          "internalType": "uint256",
          "name": "time",
          "type": "uint256"
        },
        {
          "indexed": false,
          "internalType": "string",
          "name": "status",
          "type": "string"
        },
        {
          "indexed": false,
          "internalType": "bool",
          "name": "purchased",
          "type": "bool"
        }
      ],
      "name": "propertyCreated",
      "type": "event"
    },
    {
      "constant": true,
      "inputs": [],
      "name": "bidCount",
      "outputs": [
        {
          "internalType": "uint256",
          "name": "",
          "type": "uint256"
        }
      ],
      "payable": false,
      "stateMutability": "view",
      "type": "function"
    },
    {
      "constant": true,
      "inputs": [
        {
          "internalType": "uint256",
          "name": "",
          "type": "uint256"
        }
      ],
      "name": "bids",
      "outputs": [
        {
          "internalType": "uint256",
          "name": "checkid",
          "type": "uint256"
        },
        {
          "internalType": "uint256",
          "name": "bid_id",
          "type": "uint256"
        },
        {
          "internalType": "string",
          "name": "name",
          "type": "string"
        },
        {
          "internalType": "string",
          "name": "message",
          "type": "string"
        },
        {
          "internalType": "uint256",
          "name": "price",
          "type": "uint256"
        },
        {
          "internalType": "address payable",
          "name": "bidder",
          "type": "address"
        },
        {
          "internalType": "bool",
          "name": "status",
          "type": "bool"
        }
      ],
      "payable": false,
      "stateMutability": "view",
      "type": "function"
    },
    {
      "constant": true,
      "inputs": [],
      "name": "ledgerCount",
      "outputs": [
        {
          "internalType": "uint256",
          "name": "",
          "type": "uint256"
        }
      ],
      "payable": false,
      "stateMutability": "view",
      "type": "function"
    },
    {
      "constant": true,
      "inputs": [
        {
          "internalType": "uint256",
          "name": "",
          "type": "uint256"
        }
      ],
      "name": "ledgers",
      "outputs": [
        {
          "internalType": "uint256",
          "name": "id",
          "type": "uint256"
        },
        {
          "internalType": "uint256",
          "name": "p_id",
          "type": "uint256"
        },
        {
          "internalType": "address payable",
          "name": "new_owner",
          "type": "address"
        },
        {
          "internalType": "uint256",
          "name": "time",
          "type": "uint256"
        }
      ],
      "payable": false,
      "stateMutability": "view",
      "type": "function"
    },
    {
      "constant": true,
      "inputs": [],
      "name": "linkCount",
      "outputs": [
        {
          "internalType": "uint256",
          "name": "",
          "type": "uint256"
        }
      ],
      "payable": false,
      "stateMutability": "view",
      "type": "function"
    },
    {
      "constant": true,
      "inputs": [
        {
          "internalType": "uint256",
          "name": "",
          "type": "uint256"
        }
      ],
      "name": "links",
      "outputs": [
        {
          "internalType": "uint256",
          "name": "checkid",
          "type": "uint256"
        },
        {
          "internalType": "uint256",
          "name": "bid_id",
          "type": "uint256"
        },
        {
          "internalType": "string",
          "name": "name",
          "type": "string"
        },
        {
          "internalType": "string",
          "name": "message",
          "type": "string"
        },
        {
          "internalType": "uint256",
          "name": "price",
          "type": "uint256"
        },
        {
          "internalType": "address payable",
          "name": "bidder",
          "type": "address"
        },
        {
          "internalType": "bool",
          "name": "status",
          "type": "bool"
        }
      ],
      "payable": false,
      "stateMutability": "view",
      "type": "function"
    },
    {
      "constant": true,
      "inputs": [],
      "name": "propertyCount",
      "outputs": [
        {
          "internalType": "uint256",
          "name": "",
          "type": "uint256"
        }
      ],
      "payable": false,
      "stateMutability": "view",
      "type": "function"
    },
    {
      "constant": true,
      "inputs": [
        {
          "internalType": "uint256",
          "name": "",
          "type": "uint256"
        }
      ],
      "name": "props",
      "outputs": [
        {
          "internalType": "uint256",
          "name": "id",
          "type": "uint256"
        },
        {
          "internalType": "uint256",
          "name": "bno",
          "type": "uint256"
        },
        {
          "internalType": "string",
          "name": "name",
          "type": "string"
        },
        {
          "internalType": "string",
          "name": "des",
          "type": "string"
        },
        {
          "internalType": "string",
          "name": "type1",
          "type": "string"
        },
        {
          "internalType": "address payable",
          "name": "owner",
          "type": "address"
        },
        {
          "internalType": "string",
          "name": "location",
          "type": "string"
        },
        {
          "internalType": "uint256",
          "name": "time",
          "type": "uint256"
        },
        {
          "internalType": "string",
          "name": "status",
          "type": "string"
        },
        {
          "internalType": "bool",
          "name": "purchased",
          "type": "bool"
        }
      ],
      "payable": false,
      "stateMutability": "view",
      "type": "function"
    },
    {
      "constant": false,
      "inputs": [
        {
          "internalType": "uint256",
          "name": "_bno",
          "type": "uint256"
        },
        {
          "internalType": "string",
          "name": "_name",
          "type": "string"
        },
        {
          "internalType": "string",
          "name": "_des",
          "type": "string"
        },
        {
          "internalType": "address payable",
          "name": "_owner",
          "type": "address"
        },
        {
          "internalType": "string",
          "name": "_type",
          "type": "string"
        },
        {
          "internalType": "string",
          "name": "_location",
          "type": "string"
        }
      ],
      "name": "createProperty",
      "outputs": [],
      "payable": false,
      "stateMutability": "nonpayable",
      "type": "function"
    },
    {
      "constant": false,
      "inputs": [
        {
          "internalType": "uint256",
          "name": "_id",
          "type": "uint256"
        }
      ],
      "name": "forSale",
      "outputs": [],
      "payable": true,
      "stateMutability": "payable",
      "type": "function"
    },
    {
      "constant": false,
      "inputs": [
        {
          "internalType": "uint256",
          "name": "_id",
          "type": "uint256"
        }
      ],
      "name": "forRent",
      "outputs": [],
      "payable": true,
      "stateMutability": "payable",
      "type": "function"
    },
    {
      "constant": false,
      "inputs": [
        {
          "internalType": "uint256",
          "name": "_id",
          "type": "uint256"
        }
      ],
      "name": "forApprove",
      "outputs": [],
      "payable": true,
      "stateMutability": "payable",
      "type": "function"
    },
    {
      "constant": false,
      "inputs": [
        {
          "internalType": "uint256",
          "name": "_checkid",
          "type": "uint256"
        },
        {
          "internalType": "string",
          "name": "_name",
          "type": "string"
        },
        {
          "internalType": "string",
          "name": "_message",
          "type": "string"
        },
        {
          "internalType": "uint256",
          "name": "_price",
          "type": "uint256"
        }
      ],
      "name": "createBid",
      "outputs": [],
      "payable": false,
      "stateMutability": "nonpayable",
      "type": "function"
    },
    {
      "constant": false,
      "inputs": [
        {
          "internalType": "uint256",
          "name": "_id",
          "type": "uint256"
        }
      ],
      "name": "purchaseBid",
      "outputs": [],
      "payable": true,
      "stateMutability": "payable",
      "type": "function"
    }
  ],
  "bytecode": "0x60806040526000805560006001556000600255600060035534801561002357600080fd5b506134c2806100336000396000f3fe6080604052600436106100dd5760003560e01c80639bb00ae31161007f578063c361a33511610059578063c361a335146108fd578063e978919014610928578063fda54c16146109b8578063fe47310814610c6f576100dd565b80639bb00ae31461087c578063aac47679146108a7578063b40a5627146108d2576100dd565b80633a38bf57116100bb5780633a38bf571461053a5780634423c5f114610568578063526c8ef1146106db578063881d8a4014610709576100dd565b80630da3c49c146100e257806315ccd7a7146102555780632831f2f41461050c575b600080fd5b3480156100ee57600080fd5b506102536004803603608081101561010557600080fd5b81019080803590602001909291908035906020019064010000000081111561012c57600080fd5b82018360208201111561013e57600080fd5b8035906020019184600183028401116401000000008311171561016057600080fd5b91908080601f016020809104026020016040519081016040528093929190818152602001838380828437600081840152601f19601f820116905080830192505050505050509192919290803590602001906401000000008111156101c357600080fd5b8201836020820111156101d557600080fd5b803590602001918460018302840111640100000000831117156101f757600080fd5b91908080601f016020809104026020016040519081016040528093929190818152602001838380828437600081840152601f19601f82011690508083019250505050505050919291929080359060200190929190505050610c9d565b005b34801561026157600080fd5b5061050a600480360360c081101561027857600080fd5b81019080803590602001909291908035906020019064010000000081111561029f57600080fd5b8201836020820111156102b157600080fd5b803590602001918460018302840111640100000000831117156102d357600080fd5b91908080601f016020809104026020016040519081016040528093929190818152602001838380828437600081840152601f19601f8201169050808301925050505050505091929192908035906020019064010000000081111561033657600080fd5b82018360208201111561034857600080fd5b8035906020019184600183028401116401000000008311171561036a57600080fd5b91908080601f016020809104026020016040519081016040528093929190818152602001838380828437600081840152601f19601f820116905080830192505050505050509192919290803573ffffffffffffffffffffffffffffffffffffffff169060200190929190803590602001906401000000008111156103ed57600080fd5b8201836020820111156103ff57600080fd5b8035906020019184600183028401116401000000008311171561042157600080fd5b91908080601f016020809104026020016040519081016040528093929190818152602001838380828437600081840152601f19601f8201169050808301925050505050505091929192908035906020019064010000000081111561048457600080fd5b82018360208201111561049657600080fd5b803590602001918460018302840111640100000000831117156104b857600080fd5b91908080601f016020809104026020016040519081016040528093929190818152602001838380828437600081840152601f19601f820116905080830192505050505050509192919290505050610f3e565b005b6105386004803603602081101561052257600080fd5b81019080803590602001909291905050506114dc565b005b6105666004803603602081101561055057600080fd5b81019080803590602001909291905050506118fb565b005b34801561057457600080fd5b506105a16004803603602081101561058b57600080fd5b8101908080359060200190929190505050611d1a565b6040518088815260200187815260200180602001806020018681526020018573ffffffffffffffffffffffffffffffffffffffff1673ffffffffffffffffffffffffffffffffffffffff16815260200184151515158152602001838103835288818151815260200191508051906020019080838360005b83811015610633578082015181840152602081019050610618565b50505050905090810190601f1680156106605780820380516001836020036101000a031916815260200191505b50838103825287818151815260200191508051906020019080838360005b8381101561069957808201518184015260208101905061067e565b50505050905090810190601f1680156106c65780820380516001836020036101000a031916815260200191505b50995050505050505050505060405180910390f35b610707600480360360208110156106f157600080fd5b8101908080359060200190929190505050611eb9565b005b34801561071557600080fd5b506107426004803603602081101561072c57600080fd5b8101908080359060200190929190505050612137565b6040518088815260200187815260200180602001806020018681526020018573ffffffffffffffffffffffffffffffffffffffff1673ffffffffffffffffffffffffffffffffffffffff16815260200184151515158152602001838103835288818151815260200191508051906020019080838360005b838110156107d45780820151818401526020810190506107b9565b50505050905090810190601f1680156108015780820380516001836020036101000a031916815260200191505b50838103825287818151815260200191508051906020019080838360005b8381101561083a57808201518184015260208101905061081f565b50505050905090810190601f1680156108675780820380516001836020036101000a031916815260200191505b50995050505050505050505060405180910390f35b34801561088857600080fd5b506108916122d6565b6040518082815260200191505060405180910390f35b3480156108b357600080fd5b506108bc6122dc565b6040518082815260200191505060405180910390f35b3480156108de57600080fd5b506108e76122e2565b6040518082815260200191505060405180910390f35b34801561090957600080fd5b506109126122e8565b6040518082815260200191505060405180910390f35b34801561093457600080fd5b506109616004803603602081101561094b57600080fd5b81019080803590602001909291905050506122ee565b604051808581526020018481526020018373ffffffffffffffffffffffffffffffffffffffff1673ffffffffffffffffffffffffffffffffffffffff16815260200182815260200194505050505060405180910390f35b3480156109c457600080fd5b506109f1600480360360208110156109db57600080fd5b810190808035906020019092919050505061233e565b604051808b81526020018a81526020018060200180602001806020018973ffffffffffffffffffffffffffffffffffffffff1673ffffffffffffffffffffffffffffffffffffffff16815260200180602001888152602001806020018715151515815260200186810386528e818151815260200191508051906020019080838360005b83811015610a8f578082015181840152602081019050610a74565b50505050905090810190601f168015610abc5780820380516001836020036101000a031916815260200191505b5086810385528d818151815260200191508051906020019080838360005b83811015610af5578082015181840152602081019050610ada565b50505050905090810190601f168015610b225780820380516001836020036101000a031916815260200191505b5086810384528c818151815260200191508051906020019080838360005b83811015610b5b578082015181840152602081019050610b40565b50505050905090810190601f168015610b885780820380516001836020036101000a031916815260200191505b5086810383528a818151815260200191508051906020019080838360005b83811015610bc1578082015181840152602081019050610ba6565b50505050905090810190601f168015610bee5780820380516001836020036101000a031916815260200191505b50868103825288818151815260200191508051906020019080838360005b83811015610c27578082015181840152602081019050610c0c565b50505050905090810190601f168015610c545780820380516001836020036101000a031916815260200191505b509f5050505050505050505050505050505060405180910390f35b610c9b60048036036020811015610c8557600080fd5b81019080803590602001909291905050506126b7565b005b6040518060e0016040528085815260200160015481526020018481526020018381526020018281526020013373ffffffffffffffffffffffffffffffffffffffff1681526020016000151581525060056000600154815260200190815260200160002060008201518160000155602082015181600101556040820151816002019080519060200190610d309291906132a8565b506060820151816003019080519060200190610d4d9291906132a8565b506080820151816004015560a08201518160050160006101000a81548173ffffffffffffffffffffffffffffffffffffffff021916908373ffffffffffffffffffffffffffffffffffffffff16021790555060c08201518160050160146101000a81548160ff0219169083151502179055509050506001600081548092919060010191905055507f7db1a57aa59dca21125ffef6b145d4451f42de0f9995043a82b6f7daf514e774846001548585853360006040518088815260200187815260200180602001806020018681526020018573ffffffffffffffffffffffffffffffffffffffff1673ffffffffffffffffffffffffffffffffffffffff16815260200184151515158152602001838103835288818151815260200191508051906020019080838360005b83811015610e91578082015181840152602081019050610e76565b50505050905090810190601f168015610ebe5780820380516001836020036101000a031916815260200191505b50838103825287818151815260200191508051906020019080838360005b83811015610ef7578082015181840152602081019050610edc565b50505050905090810190601f168015610f245780820380516001836020036101000a031916815260200191505b50995050505050505050505060405180910390a150505050565b60405180610140016040528060005481526020018781526020018681526020018581526020018381526020018473ffffffffffffffffffffffffffffffffffffffff1681526020018281526020014281526020016040518060400160405280600d81526020017f4e4f5420415641494c41424c45000000000000000000000000000000000000008152508152602001600015158152506004600080548152602001908152602001600020600082015181600001556020820151816001015560408201518160020190805190602001906110189291906132a8565b5060608201518160030190805190602001906110359291906132a8565b5060808201518160040190805190602001906110529291906132a8565b5060a08201518160050160006101000a81548173ffffffffffffffffffffffffffffffffffffffff021916908373ffffffffffffffffffffffffffffffffffffffff16021790555060c08201518160060190805190602001906110b69291906132a8565b5060e082015181600701556101008201518160080190805190602001906110de9291906132a8565b506101208201518160090160006101000a81548160ff0219169083151502179055509050506040518060800160405280600354815260200160005481526020018473ffffffffffffffffffffffffffffffffffffffff16815260200142815250600760006003548152602001908152602001600020600082015181600001556020820151816001015560408201518160020160006101000a81548173ffffffffffffffffffffffffffffffffffffffff021916908373ffffffffffffffffffffffffffffffffffffffff1602179055506060820151816003015590505060036000815480929190600101919050555060008081548092919060010191905055507f14851946c8230dba67134f590e985f2b78c5a50638089913f5583098921aa8e86003546000548542604051808581526020018481526020018373ffffffffffffffffffffffffffffffffffffffff1673ffffffffffffffffffffffffffffffffffffffff16815260200182815260200194505050505060405180910390a17f50ee6ded3f9d2bd16c54cbdfbd0a785fe1e48bdd8154e92786f3cdf69bff9450600054878787868887426000604051808a81526020018981526020018060200180602001806020018873ffffffffffffffffffffffffffffffffffffffff1673ffffffffffffffffffffffffffffffffffffffff16815260200180602001878152602001806020018715151515815260200186810386528d818151815260200191508051906020019080838360005b8381101561132857808201518184015260208101905061130d565b50505050905090810190601f1680156113555780820380516001836020036101000a031916815260200191505b5086810385528c818151815260200191508051906020019080838360005b8381101561138e578082015181840152602081019050611373565b50505050905090810190601f1680156113bb5780820380516001836020036101000a031916815260200191505b5086810384528b818151815260200191508051906020019080838360005b838110156113f45780820151818401526020810190506113d9565b50505050905090810190601f1680156114215780820380516001836020036101000a031916815260200191505b50868103835289818151815260200191508051906020019080838360005b8381101561145a57808201518184015260208101905061143f565b50505050905090810190601f1680156114875780820380516001836020036101000a031916815260200191505b508681038252600d8152602001807f4e4f5420415641494c41424c45000000000000000000000000000000000000008152506020019e50505050505050505050505050505060405180910390a1505050505050565b3373ffffffffffffffffffffffffffffffffffffffff166004600083815260200190815260200160002060050160009054906101000a900473ffffffffffffffffffffffffffffffffffffffff1673ffffffffffffffffffffffffffffffffffffffff161461154a57600080fd5b6040518060400160405280600481526020017f53414c45000000000000000000000000000000000000000000000000000000008152506004600083815260200190815260200160002060080190805190602001906115a9929190613328565b507f551d3a9ca8cbcd96328d9dd748056307e2ac9d8d62cc5cafd352c772537903a56000546004600084815260200190815260200160002060020160046000858152602001908152602001600020600301600460008681526020019081526020016000206004016004600087815260200190815260200160002060050160009054906101000a900473ffffffffffffffffffffffffffffffffffffffff16600460008881526020019081526020016000206008016004600089815260200190815260200160002060090160009054906101000a900460ff16604051808881526020018060200180602001806020018773ffffffffffffffffffffffffffffffffffffffff1673ffffffffffffffffffffffffffffffffffffffff168152602001806020018615151515815260200185810385528b8181546001816001161561010002031660029004815260200191508054600181600116156101000203166002900480156117585780601f1061172d57610100808354040283529160200191611758565b820191906000526020600020905b81548152906001019060200180831161173b57829003601f168201915b505085810384528a8181546001816001161561010002031660029004815260200191508054600181600116156101000203166002900480156117db5780601f106117b0576101008083540402835291602001916117db565b820191906000526020600020905b8154815290600101906020018083116117be57829003601f168201915b505085810383528981815460018160011615610100020316600290048152602001915080546001816001161561010002031660029004801561185e5780601f106118335761010080835404028352916020019161185e565b820191906000526020600020905b81548152906001019060200180831161184157829003601f168201915b50508581038252878181546001816001161561010002031660029004815260200191508054600181600116156101000203166002900480156118e15780601f106118b6576101008083540402835291602001916118e1565b820191906000526020600020905b8154815290600101906020018083116118c457829003601f168201915b50509b50505050505050505050505060405180910390a150565b3373ffffffffffffffffffffffffffffffffffffffff166004600083815260200190815260200160002060050160009054906101000a900473ffffffffffffffffffffffffffffffffffffffff1673ffffffffffffffffffffffffffffffffffffffff161461196957600080fd5b6040518060400160405280600481526020017f52454e54000000000000000000000000000000000000000000000000000000008152506004600083815260200190815260200160002060080190805190602001906119c8929190613328565b507f551d3a9ca8cbcd96328d9dd748056307e2ac9d8d62cc5cafd352c772537903a56000546004600084815260200190815260200160002060020160046000858152602001908152602001600020600301600460008681526020019081526020016000206004016004600087815260200190815260200160002060050160009054906101000a900473ffffffffffffffffffffffffffffffffffffffff16600460008881526020019081526020016000206008016004600089815260200190815260200160002060090160009054906101000a900460ff16604051808881526020018060200180602001806020018773ffffffffffffffffffffffffffffffffffffffff1673ffffffffffffffffffffffffffffffffffffffff168152602001806020018615151515815260200185810385528b818154600181600116156101000203166002900481526020019150805460018160011615610100020316600290048015611b775780601f10611b4c57610100808354040283529160200191611b77565b820191906000526020600020905b815481529060010190602001808311611b5a57829003601f168201915b505085810384528a818154600181600116156101000203166002900481526020019150805460018160011615610100020316600290048015611bfa5780601f10611bcf57610100808354040283529160200191611bfa565b820191906000526020600020905b815481529060010190602001808311611bdd57829003601f168201915b5050858103835289818154600181600116156101000203166002900481526020019150805460018160011615610100020316600290048015611c7d5780601f10611c5257610100808354040283529160200191611c7d565b820191906000526020600020905b815481529060010190602001808311611c6057829003601f168201915b5050858103825287818154600181600116156101000203166002900481526020019150805460018160011615610100020316600290048015611d005780601f10611cd557610100808354040283529160200191611d00565b820191906000526020600020905b815481529060010190602001808311611ce357829003601f168201915b50509b50505050505050505050505060405180910390a150565b6005602052806000526040600020600091509050806000015490806001015490806002018054600181600116156101000203166002900480601f016020809104026020016040519081016040528092919081815260200182805460018160011615610100020316600290048015611dd25780601f10611da757610100808354040283529160200191611dd2565b820191906000526020600020905b815481529060010190602001808311611db557829003601f168201915b505050505090806003018054600181600116156101000203166002900480601f016020809104026020016040519081016040528092919081815260200182805460018160011615610100020316600290048015611e705780601f10611e4557610100808354040283529160200191611e70565b820191906000526020600020905b815481529060010190602001808311611e5357829003601f168201915b5050505050908060040154908060050160009054906101000a900473ffffffffffffffffffffffffffffffffffffffff16908060050160149054906101000a900460ff16905087565b60016005600083815260200190815260200160002060050160146101000a81548160ff0219169083151502179055507f783dcb8016c4e3da6498ddaca349c9042ab7a46c94b19d497404f040afe3fa9e6005600083815260200190815260200160002060000154600154600560008581526020019081526020016000206002016005600086815260200190815260200160002060030160056000878152602001908152602001600020600401546005600088815260200190815260200160002060050160009054906101000a900473ffffffffffffffffffffffffffffffffffffffff166005600089815260200190815260200160002060050160149054906101000a900460ff166040518088815260200187815260200180602001806020018681526020018573ffffffffffffffffffffffffffffffffffffffff1673ffffffffffffffffffffffffffffffffffffffff1681526020018415151515815260200183810383528881815460018160011615610100020316600290048152602001915080546001816001161561010002031660029004801561209c5780601f106120715761010080835404028352916020019161209c565b820191906000526020600020905b81548152906001019060200180831161207f57829003601f168201915b505083810382528781815460018160011615610100020316600290048152602001915080546001816001161561010002031660029004801561211f5780601f106120f45761010080835404028352916020019161211f565b820191906000526020600020905b81548152906001019060200180831161210257829003601f168201915b5050995050505050505050505060405180910390a150565b6006602052806000526040600020600091509050806000015490806001015490806002018054600181600116156101000203166002900480601f0160208091040260200160405190810160405280929190818152602001828054600181600116156101000203166002900480156121ef5780601f106121c4576101008083540402835291602001916121ef565b820191906000526020600020905b8154815290600101906020018083116121d257829003601f168201915b505050505090806003018054600181600116156101000203166002900480601f01602080910402602001604051908101604052809291908181526020018280546001816001161561010002031660029004801561228d5780601f106122625761010080835404028352916020019161228d565b820191906000526020600020905b81548152906001019060200180831161227057829003601f168201915b5050505050908060040154908060050160009054906101000a900473ffffffffffffffffffffffffffffffffffffffff16908060050160149054906101000a900460ff16905087565b60035481565b60025481565b60015481565b60005481565b60076020528060005260406000206000915090508060000154908060010154908060020160009054906101000a900473ffffffffffffffffffffffffffffffffffffffff16908060030154905084565b6004602052806000526040600020600091509050806000015490806001015490806002018054600181600116156101000203166002900480601f0160208091040260200160405190810160405280929190818152602001828054600181600116156101000203166002900480156123f65780601f106123cb576101008083540402835291602001916123f6565b820191906000526020600020905b8154815290600101906020018083116123d957829003601f168201915b505050505090806003018054600181600116156101000203166002900480601f0160208091040260200160405190810160405280929190818152602001828054600181600116156101000203166002900480156124945780601f1061246957610100808354040283529160200191612494565b820191906000526020600020905b81548152906001019060200180831161247757829003601f168201915b505050505090806004018054600181600116156101000203166002900480601f0160208091040260200160405190810160405280929190818152602001828054600181600116156101000203166002900480156125325780601f1061250757610100808354040283529160200191612532565b820191906000526020600020905b81548152906001019060200180831161251557829003601f168201915b5050505050908060050160009054906101000a900473ffffffffffffffffffffffffffffffffffffffff1690806006018054600181600116156101000203166002900480601f0160208091040260200160405190810160405280929190818152602001828054600181600116156101000203166002900480156125f65780601f106125cb576101008083540402835291602001916125f6565b820191906000526020600020905b8154815290600101906020018083116125d957829003601f168201915b505050505090806007015490806008018054600181600116156101000203166002900480601f01602080910402602001604051908101604052809291908181526020018280546001816001161561010002031660029004801561269a5780601f1061266f5761010080835404028352916020019161269a565b820191906000526020600020905b81548152906001019060200180831161267d57829003601f168201915b5050505050908060090160009054906101000a900460ff1690508a565b6126bf6133a8565b600560008381526020019081526020016000206040518060e00160405290816000820154815260200160018201548152602001600282018054600181600116156101000203166002900480601f01602080910402602001604051908101604052809291908181526020018280546001816001161561010002031660029004801561278a5780601f1061275f5761010080835404028352916020019161278a565b820191906000526020600020905b81548152906001019060200180831161276d57829003601f168201915b50505050508152602001600382018054600181600116156101000203166002900480601f01602080910402602001604051908101604052809291908181526020018280546001816001161561010002031660029004801561282c5780601f106128015761010080835404028352916020019161282c565b820191906000526020600020905b81548152906001019060200180831161280f57829003601f168201915b50505050508152602001600482015481526020016005820160009054906101000a900473ffffffffffffffffffffffffffffffffffffffff1673ffffffffffffffffffffffffffffffffffffffff1673ffffffffffffffffffffffffffffffffffffffff1681526020016005820160149054906101000a900460ff161515151581525050905060008160a001519050600082602001511180156128d457506001548260200151105b6128dd57600080fd5b81608001513410156128ee57600080fd5b6000826000015190506128ff6133fd565b60046000838152602001908152602001600020604051806101400160405290816000820154815260200160018201548152602001600282018054600181600116156101000203166002900480601f0160208091040260200160405190810160405280929190818152602001828054600181600116156101000203166002900480156129cb5780601f106129a0576101008083540402835291602001916129cb565b820191906000526020600020905b8154815290600101906020018083116129ae57829003601f168201915b50505050508152602001600382018054600181600116156101000203166002900480601f016020809104026020016040519081016040528092919081815260200182805460018160011615610100020316600290048015612a6d5780601f10612a4257610100808354040283529160200191612a6d565b820191906000526020600020905b815481529060010190602001808311612a5057829003601f168201915b50505050508152602001600482018054600181600116156101000203166002900480601f016020809104026020016040519081016040528092919081815260200182805460018160011615610100020316600290048015612b0f5780601f10612ae457610100808354040283529160200191612b0f565b820191906000526020600020905b815481529060010190602001808311612af257829003601f168201915b505050505081526020016005820160009054906101000a900473ffffffffffffffffffffffffffffffffffffffff1673ffffffffffffffffffffffffffffffffffffffff1673ffffffffffffffffffffffffffffffffffffffff168152602001600682018054600181600116156101000203166002900480601f016020809104026020016040519081016040528092919081815260200182805460018160011615610100020316600290048015612c075780601f10612bdc57610100808354040283529160200191612c07565b820191906000526020600020905b815481529060010190602001808311612bea57829003601f168201915b5050505050815260200160078201548152602001600882018054600181600116156101000203166002900480601f016020809104026020016040519081016040528092919081815260200182805460018160011615610100020316600290048015612cb35780601f10612c8857610100808354040283529160200191612cb3565b820191906000526020600020905b815481529060010190602001808311612c9657829003601f168201915b505050505081526020016009820160009054906101000a900460ff161515151581525050905060008160a00151905081610120015115612cf257600080fd5b3373ffffffffffffffffffffffffffffffffffffffff168173ffffffffffffffffffffffffffffffffffffffff161415612d2b57600080fd5b338560a0019073ffffffffffffffffffffffffffffffffffffffff16908173ffffffffffffffffffffffffffffffffffffffff16815250506001826101200190151590811515815250506040518060400160405280600d81526020017f4e4f5420415641494c41424c4500000000000000000000000000000000000000815250826101000181905250846005600088815260200190815260200160002060008201518160000155602082015181600101556040820151816002019080519060200190612df89291906132a8565b506060820151816003019080519060200190612e159291906132a8565b506080820151816004015560a08201518160050160006101000a81548173ffffffffffffffffffffffffffffffffffffffff021916908373ffffffffffffffffffffffffffffffffffffffff16021790555060c08201518160050160146101000a81548160ff021916908315150217905550905050816004600085815260200190815260200160002060008201518160000155602082015181600101556040820151816002019080519060200190612ece9291906132a8565b506060820151816003019080519060200190612eeb9291906132a8565b506080820151816004019080519060200190612f089291906132a8565b5060a08201518160050160006101000a81548173ffffffffffffffffffffffffffffffffffffffff021916908373ffffffffffffffffffffffffffffffffffffffff16021790555060c0820151816006019080519060200190612f6c9291906132a8565b5060e08201518160070155610100820151816008019080519060200190612f949291906132a8565b506101208201518160090160006101000a81548160ff0219169083151502179055509050508073ffffffffffffffffffffffffffffffffffffffff166108fc349081150290604051600060405180830381858888f19350505050158015612fff573d6000803e3d6000fd5b50604051806080016040528060035481526020018481526020018573ffffffffffffffffffffffffffffffffffffffff16815260200142815250600760006003548152602001908152602001600020600082015181600001556020820151816001015560408201518160020160006101000a81548173ffffffffffffffffffffffffffffffffffffffff021916908373ffffffffffffffffffffffffffffffffffffffff160217905550606082015181600301559050506003600081548092919060010191905055507f14851946c8230dba67134f590e985f2b78c5a50638089913f5583098921aa8e8600354848342604051808581526020018481526020018373ffffffffffffffffffffffffffffffffffffffff1673ffffffffffffffffffffffffffffffffffffffff16815260200182815260200194505050505060405180910390a17f0bc01cc82be868a5a19de4fd9f927b36bc8f38d681bda2f4776bc898432a640b600154866040015187606001518860800151336040518086815260200180602001806020018581526020018473ffffffffffffffffffffffffffffffffffffffff1673ffffffffffffffffffffffffffffffffffffffff168152602001838103835287818151815260200191508051906020019080838360005b838110156131fb5780820151818401526020810190506131e0565b50505050905090810190601f1680156132285780820380516001836020036101000a031916815260200191505b50838103825286818151815260200191508051906020019080838360005b83811015613261578082015181840152602081019050613246565b50505050905090810190601f16801561328e5780820380516001836020036101000a031916815260200191505b5097505050505050505060405180910390a1505050505050565b828054600181600116156101000203166002900490600052602060002090601f016020900481019282601f106132e957805160ff1916838001178555613317565b82800160010185558215613317579182015b828111156133165782518255916020019190600101906132fb565b5b5090506133249190613468565b5090565b828054600181600116156101000203166002900490600052602060002090601f016020900481019282601f1061336957805160ff1916838001178555613397565b82800160010185558215613397579182015b8281111561339657825182559160200191906001019061337b565b5b5090506133a49190613468565b5090565b6040518060e001604052806000815260200160008152602001606081526020016060815260200160008152602001600073ffffffffffffffffffffffffffffffffffffffff1681526020016000151581525090565b6040518061014001604052806000815260200160008152602001606081526020016060815260200160608152602001600073ffffffffffffffffffffffffffffffffffffffff1681526020016060815260200160008152602001606081526020016000151581525090565b61348a91905b8082111561348657600081600090555060010161346e565b5090565b9056fea265627a7a723158207a97b90277bd68a33026a175a081223a680ec0d3581970022214d6a14791c88e64736f6c634300050c0032",
  "source": "pragma solidity ^0.5.1;\ncontract freelancer{\n\n   // enum Status {NOT_AVAILABLE,FOR_SELL,FOR_RENT}\n\n    struct property{\n        uint id;\n        uint bno;\n        string name;\n        string des;\n        string type1;\n        address payable owner;\n        string location;\n        uint256 time;\n        string status;\n        bool purchased;\n\n    }\n    \n    struct bid{\n        uint checkid;\n        uint bid_id;\n        string name;\n        string message;\n        uint price;\n        address payable bidder;\n        bool status;\n    }\n   struct ledger{\n        uint id;\n        uint p_id;\n        address payable new_owner;\n        uint256 time;\n    }\n\n    \n    uint public propertyCount=0;\n    uint public bidCount=0;\n    uint public linkCount=0;\n    uint public ledgerCount=0;\n\n    mapping (uint=>property) public props;\n    mapping (uint=>bid) public bids;\n    mapping (uint=>bid) public links;\n    mapping (uint=>ledger) public ledgers;\n     \n    \n    event propertyCreated(\n        uint id,\n        uint bno,\n        string name,\n        string des,\n        string type1,\n        address payable owner,\n        string location,\n        uint256 time,\n        string status,\n        bool purchased\n    );\n\n    event bidCreated(\n        uint checkid,\n        uint bid_id,\n        string name,\n        string message,\n        uint price,\n        address payable bidder,\n        bool status\n\n        );\n    event bidPurchased(\n        uint bid_id,\n        string name,\n        string message,\n        uint price,\n        address payable bidder\n        );\n\n    event Sale(\n        uint id,\n        string name,\n        string des,\n        string type1,\n        address payable owner,\n        string status,\n        bool purchased\n\n    );\n\n    event Rent(\n        uint id,\n        string name,\n        string des,\n        string type1,\n        address payable owner,\n        string status,\n        bool purchased\n\n    );\n\n    event Approved(\n        uint checkid,\n        uint bid_id,\n        string name,\n        string message,\n        uint price,\n        address payable bidder,\n        bool status\n    );\n    \n      event ledgerCreated(\n        uint id,\n        uint p_id,\n        address payable new_owner,\n        uint256 time\n    );\n  \n\n    function createProperty(uint _bno,string memory _name,string memory _des,address payable _owner,string memory _type, string memory _location)public{\n        \n        props[propertyCount]=property(propertyCount,_bno,_name,_des,_type,_owner,_location, now,\"NOT AVAILABLE\",false);\n         ledgers[ledgerCount]=ledger(ledgerCount,propertyCount,_owner,now);\n        ledgerCount++; propertyCount++;\n         emit ledgerCreated(ledgerCount,propertyCount,_owner,now);\n        emit propertyCreated(propertyCount,_bno,_name,_des,_type,_owner,_location,now,\"NOT AVAILABLE\",false);\n    }\n\n    function forSale(uint _id)public payable{\n       require(props[_id].owner==msg.sender);\n        props[_id].status=\"SALE\";\n        emit Sale(propertyCount,props[_id].name,props[_id].des,props[_id].type1,props[_id].owner,props[_id].status,props[_id].purchased);\n    }\n\n    function forRent(uint _id)public payable{\n        require(props[_id].owner==msg.sender);\n        props[_id].status=\"RENT\";\n        emit Sale(propertyCount,props[_id].name,props[_id].des,props[_id].type1,props[_id].owner,props[_id].status,props[_id].purchased);\n    }\n\n    function forApprove(uint _id) public payable{\n\n        bids[_id].status=true;\n        emit Approved(bids[_id].checkid,bidCount,bids[_id].name,bids[_id].message,bids[_id].price,bids[_id].bidder,bids[_id].status);\n    }\n\n\n    function createBid( uint _checkid,string memory _name, string memory _message, uint _price) public{\n        bids[bidCount]=bid(_checkid,bidCount,_name,_message,_price, msg.sender,false);\n        bidCount++;\n        //links[_checkid]=bid(bidCount,_name,_message,_time,_price, msg.sender);\n        //linkCount++;\n        emit bidCreated(_checkid,bidCount,_name,_message,_price, msg.sender,false);\n        \n    }\n\n     function purchaseBid(uint _id) public payable  {\n        //fetch the bid\n        bid memory _bid = bids[_id];\n        //fetch the owner \n        address payable _buyer =_bid.bidder;\n       // address payable _seller =_bid.bidder;\n        // Make sure the product id is valid\n        require (_bid.bid_id >0 && _bid.bid_id< bidCount);\n        // enough ether\n        require (msg.value >= _bid.price);\n         //fetch the work\n         uint  property_id =_bid.checkid;\n\n         property memory _property = props[property_id];\n\n         address payable _seller= _property.owner;\n         //work is not purchased\n         require (!_property.purchased);\n\n         //seller is not buyer\n         require (_seller!=msg.sender);\n         \n         \n        //transfer ownership to the buyer\n         _bid.bidder= msg.sender;\n         //mark as purchased\n        _property.purchased = true;\n        _property.status=\"NOT AVAILABLE\";\n         //update the product\n         bids[_id]=_bid;\n         props[property_id]=_property;\n         //pay the seller through ether\n         address(_seller).transfer(msg.value);\n         //trigger an event\n         ledgers[ledgerCount]=ledger(ledgerCount,property_id,_buyer,now);\n         ledgerCount ++;\n         emit ledgerCreated(ledgerCount,property_id,_seller,now);\n         emit bidPurchased(bidCount,_bid.name,_bid.message,_bid.price, msg.sender);\n\n    }    \n\n}",
  "sourcePath": "/home/neha/Desktop/Ethereum/shelterhub1/client/src/contracts/freelancer.sol",
  "compiler": {
    "name": "solc",
    "version": "0.5.12+commit.7709ece9.Emscripten.clang"
  },
  "schemaVersion": "3.0.20",
  "updatedAt": "2020-03-02T06:44:23.805Z",
  "networkType": "ethereum",
  "devdoc": {
    "methods": {}
  },
  "userdoc": {
    "methods": {}
  }
}